:100000000C946A020C9492020C9492020C94920248
:100010000C9492020C9492020C9492020C94920210
:100020000C9492020C9492020C9492020C9428125A
:100030000C9492020C9492020C9492020C949202F0
:100040000C9486110C9492020C94F6110C94D0111D
:100050000C9492020C9492020C9492020C949202D0
:100060000C9492020C9492020101FF030101F70328
:100070006C0068000500893008023802497868146D
:1000800000000504D8F870200202804005006801D5
:100090003801000020576F6E2120002047616D65F8
:1000A000206F766572200020504155534520000096
:1000B000000000240027002A00000000002500287E
:1000C000002B000500380168010000401E00000000
:1000D000000000000000000000000000003FFFFFE3
:1000E000FFFFFFFFF8000000000000000800000014
:1000F000000000000800000000001C0008000000D4
:1001000000001C000800000000001C0008000000A7
:1001100000000000C80003800000007D0801E60028
:1001200000003E3D0807C200000F0E1E0801F2004D
:1001300001F38E1E08007401E0E38E0F08003C03FB
:1001400038E38E1708003C0338E38E17C8001C07FD
:1001500038E38E3388001F0738E3CF8008002F076D
:1001600018FBE000080063C198F00000080041E0BF
:10017000F0000222080041F0000001240800E30022
:10018000000000F80801800000000188080000005D
:100190000000008FF800000000000188000000004F
:1001A000000000F800000000000001240000000032
:1001B00000000222000000000000000000586F6EE6
:1001C000697820627920546E784563320017534471
:1001D00000161378001613140015102000152010B7
:1001E00000540A03E181867F3E186D830F0F0E01D4
:1001F00083866033186DC3198F1803C38E6033185C
:100200006DE330CF1803C39E603630CDE360CF304E
:1002100006C79E7E3E30CDB360CF300CC6F660334D
:1002200030D9B660CF33CFCCF66061B0DB1E60CF83
:1002300030D86CE6C061B0DB1E618F19986CC6C007
:1002400063B19B0E330F0FB078C6FF7E1F1B061ED7
:100250000F0A0A153A49676E6F7265006D560A0AF1
:10026000504C45415345205455524E204F46462050
:10027000004C4F572042415454455259212000030D
:10028000053F213F1208120A100A0E1C0E0C1E0C0C
:10029000141A14161F161E131E1E1B1E1E1F1E3F91
:1002A000213F3A2F3A173D173F213F181F02040AFA
:1002B000041F0E04040E1F0A1F0A0E0E1F04110E47
:1002C0002E252E2F2A2E262929021F02081F081547
:1002D0000E04040E150E15151B151B040604040C44
:1002E000040000000017000300031F0A1F16371A3E
:1002F0001904130A153A000300000E11110E000A2A
:10030000040A040E04003000040404001000180461
:10031000031F111F121F101D151711151F07041F92
:1003200017151D1F151D01011F1F151F17151F0074
:100330000A00003200040A110A0A0A110A0401150F
:10034000020E11171E051E1F150A0E110A1F110E8F
:100350001F15111F05010E111D1F041F111F11086C
:10036000100F1F041B1F10101F061F1E040F0E115D
:100370000E1F09060E112E1F051A121509011F0165
:100380001F101F0F180F1F0C1F1B041B031C03192A
:100390001513001F11030418111F00020102202071
:1003A000200001020C121E1F120C0C12120C121F44
:1003B0000C1A14041E05242A1E1F021C141D1020D2
:1003C000201D1F0814111F101E041E1E021C0C12DB
:1003D0000C3E0A040C123E1E040214160A020F12EE
:1003E0000E101E0E100E1E081E120C1226281E3293
:1003F0002A26041E21001F00211E040102013F21A4
:100400003FF6E8DBCFC3B8AEA49B928A827B746EC2
:1004100068625C57524E4945413E3A3734312E2C82
:100420002927252321450068010000172B152010DE
:10043000204C4F4144455200172B16201314000A3C
:100440004E6F2053442063617264206F720A6E6F96
:10045000204C4F414445522E4845580A0A153A450A
:10046000786974001D20466C617368696E670A20A4
:10047000206C6F616465722E2E2E0A0A444F4E273F
:1004800054205455524E204F464621000000000093
:1004900023002600290004040404040404040202C6
:1004A00002020202030303030303010204081020F3
:1004B00040800102040810200102040810200000FE
:1004C0000008000201000003040700000000000013
:1004D0000000731211241FBECFEFD8E0DEBFCDBFE6
:1004E00011E0A0E0B1E0ECE0F8E302C005900D926D
:1004F000A633B107D9F728E0A6E3B1E001C01D9209
:10050000AA35B207E1F712E0CAE6D2E004C02197AB
:10051000FE010E94FE1BC936D107C9F70E94AA122C
:100520000C94041C0C94000090E0880F991FE0913B
:100530000708F0910808E80FF91F259134913093CE
:10054000180820931708F901859194919091FC0760
:10055000989F802D112480931908F9016591749159
:10056000472F50E08417150629F020F0F901259156
:100570003491832F989F802D112480931A08089519
:10058000833081F028F4813099F08230A9F0089509
:100590008730A9F08830C9F08430B1F480918000B0
:1005A0008F7D03C0809180008F77809380000895B5
:1005B00084B58F7784BD089584B58F7DFBCF8091FE
:1005C000B0008F778093B00008958091B0008F7D48
:1005D000F9CF1F93CF93DF93282F30E0F901E25436
:1005E000FB4F8491F901E655FB4FD491F901EA568E
:1005F000FB4FC491CC23A9F0162F81110E94C00299
:10060000EC2FF0E0EE0FFF1FE754FF4FA591B491E0
:100610008FB7F894EC91111108C0D095DE23DC93CC
:100620008FBFDF91CF911F910895DE2BF8CFCF932D
:10063000C82FF89460E0809130080E94E902809110
:10064000310818161CF460E00E94E902CEBD0000DB
:100650000DB407FEFDCF8EB58091310818161CF43D
:1006600061E00E94E9027894CF9108950F931F935F
:10067000CF9380912D088F5F80932D0806E315E0BE
:10068000C0E08C2F80640E94170380E80E9417034B
:1006900061E0809130080E94E902809131081816CB
:1006A0001CF460E00E94E902F80184E591919EBD8E
:1006B00000000DB407FEFDCF9EB58150B9F78091C3
:1006C000310818161CF461E00E94E902CF5F0C5A51
:1006D0001F4FC630B1F680E4CF911F910F910C945B
:1006E0001703CF93DF9390E0FC01E655FB4F249175
:1006F0008A569B4FFC0184918823C9F090E0880FB3
:10070000991FFC01E155FF4FA591B491FC01E754FD
:10071000FF4FC591D49161110DC09FB7F8948C9192
:10072000209582238C938881282328839FBFDF9183
:10073000CF910895623051F49FB7F8943C91822F85
:10074000809583238C93E8812E2BEFCF8FB7F8947D
:10075000EC912E2B2C938FBFEACFFF920F931F9318
:10076000CF93DF93C3EDD7E0FF24FA9462E08A854C
:100770000E9471032A8530E0F901E254FB4F849115
:10078000F901E655FB4F0491F901EA56FB4F14912C
:100790001123E1F081110E94C002E12FF0E0EE0F81
:1007A000FF1FE457FB4FA591B491EC9189890E236B
:1007B00069F0811113C0219687E0CA3DD807B1F6D0
:1007C000DF91CF911F910F91FF90089589898F5FDD
:1007D000898B60E08A850E947103EDCF8F3F11F411
:1007E000198AF7CFF98AF5CF1F93CF93DF93182F8C
:1007F000EB0161E00E947103209739F460E0812FE2
:10080000DF91CF911F910C94E902CF3FD10511F4F4
:1008100061E0F5CFE12FF0E0E254FB4FE491E330EB
:1008200031F140F4E130B1F0E230E1F0C038D1050F
:100830007CF7E4CFE73029F1E83059F1E430B1F743
:1008400080918000806280938000D0938B00C09361
:100850008A0004C084B5806884BDC7BDDF91CF9194
:100860001F91089584B5806284BDC8BDF7CF809183
:100870008000806880938000D0938900C0938800B6
:10088000EDCF8091B00080688093B000C093B3003A
:10089000E5CF8091B00080628093B000C093B40037
:1008A000DDCF8E50806480937C0080917A008064DC
:1008B00080937A0080917A0086FDFCCF8091780049
:1008C0009091790008958091F7078F7149F584E13F
:1008D0000E945104BC01990F880B990B0E94C11A08
:1008E00026EE3FE34EEC50E40E94251B0E94901A36
:1008F0009B017093EE076093ED07672BB9F084E0DE
:100900008093EC07EFEEF7E080E0419151912417DE
:10091000350718F48093EC0708958F5F8430A9F7AA
:100920008091F7078F5F8093F70708958FEF80938B
:10093000EC07F6CF3FB7F8948091290590912A05EE
:10094000A0912B05B0912C0526B5A89B05C02F3F83
:1009500019F00196A11DB11D3FBFBA2FA92F982FE5
:100960008827BC01CD01620F711D811D911D42E0E0
:10097000660F771F881F991F4A95D1F708958F92A8
:100980009F92AF92BF92CF92DF92EF92FF924B0174
:100990005C010E949A046B017C010E949A046C190C
:1009A0007D098E099F09683E734081059105A8F372
:1009B00021E0821A9108A108B10888EEC80E83E0F0
:1009C000D81EE11CF11C81149104A104B10429F783
:1009D000FF90EF90DF90CF90BF90AF909F908F905F
:1009E0000895DC01ED91FC910190F081E02D0994D6
:1009F000EF92FF920F931F93CF93DF938C017B01B4
:100A0000D0E0C0E0F701EC0FFD1F6491662361F0B8
:100A1000D801ED91FC910190F081E02DC80109957C
:100A2000892B11F02196EECFCE01DF91CF911F914E
:100A30000F91FF90EF900895AF92BF92CF92DF9207
:100A4000EF92FF920F931F93CF93DF936C017B0183
:100A50008B01040F151FEB015E01AE18BF08C01714
:100A6000D10759F06991D601ED91FC910190F08187
:100A7000E02DC6010995892B79F7C501DF91CF914A
:100A80001F910F91FF90EF90DF90CF90BF90AF90AC
:100A90000895FC01538D448D252F30E0842F90E084
:100AA000821B930B541710F0CF9608950197089569
:100AB000FC01918D828D981761F0A28DAE0FBF2F32
:100AC000B11D5D968C91928D9F5F9F73928F90E088
:100AD00008958FEF9FEF0895FC01918D828D9817F7
:100AE00031F0828DE80FF11D858D90E008958FEF34
:100AF0009FEF0895FC01918D228D892F90E0805CFD
:100B00009F4F821B91098F739927089586E397E081
:100B10000E947A0521E0892B09F420E0822F0895B4
:100B200080E090E0892B29F00E94860581110C94C9
:100B300000000895FC01A48DA80FB92FB11DA35A80
:100B4000BF4F2C91848D90E001968F739927848FED
:100B5000A689B7892C93A089B1898C918370806410
:100B60008C93938D848D981306C00288F389E02DB1
:100B700080818F7D80830895EF92FF920F931F9362
:100B8000CF93DF93EC0181E0888F9B8D8C8D981340
:100B90001AC0E889F989808185FF15C09FB7F8944C
:100BA000EE89FF896083E889F98980818370806498
:100BB00080839FBF81E090E0DF91CF911F910F91E3
:100BC000FF90EF900895F62E0B8D10E00F5F1F4FF2
:100BD0000F731127E02E8C8D8E110CC00FB607FC01
:100BE000FACFE889F989808185FFF5CFCE010E948F
:100BF0009A05F1CFEB8DEC0FFD2FF11DE35AFF4F5E
:100C0000F0829FB7F8940B8FEA89FB89808180621C
:100C1000CFCFCF93DF93EC01888D8823B9F0AA89D9
:100C2000BB89E889F9898C9185FD03C0808186FDA7
:100C30000DC00FB607FCF7CF8C9185FFF2CF8081F6
:100C400085FFEDCFCE010E949A05E9CFDF91CF91CC
:100C50000895FC01178A158A14A213A2108E10920F
:100C60002D0510922E05109231051092B4000895B2
:100C70000F931F93CF93DF93EC018B010E94290602
:100C80001E870D871B8A1A8A81E0898389E08E8BF3
:100C9000198E1B8E1D8EDF91CF911F910F9108959C
:100CA000E09101088E2F90E0880F991FE091FF07D7
:100CB000F0910008E80FF91F859194918F3F9807F4
:100CC00019F41092F8070895909304089927880F53
:100CD000991FE0910208F0910308E80FF91F659150
:100CE000749188EF97E00E943806809101088F5F29
:100CF0008093010808954F925F927F928F929F9206
:100D0000AF92BF92CF92DF92EF92FF920F931F9319
:100D1000CF93DF93EC01F901E490319684910E2C8E
:100D2000000CFF08062F062E000C110BF801EE0D2B
:100D3000FF1D1E161F060CF0E1C040330CF0DEC094
:100D4000A82FA42E042E000CBB086501C80ED11CD0
:100D500087FDDA941C141D040CF0D0C02E5F3F4FA9
:100D6000670177E0C70ED11CD7FE04C067019EE083
:100D7000C90ED11C93E0D594C7949A95E1F747FF2B
:100D80000AC0A42FA80FCA9CC001CB9C900D1124AF
:100D9000281B390B40E08A2F0A2E000C990B840F78
:100DA000911D47FD9A95C19714F0A0E3A41BF8A0EC
:100DB000E535F10514F0E4E5F0E09E2FCC85C4277D
:100DC000542F577081E001C0880F5A95EAF7459576
:100DD00045954595F80174E54702E00DF11D112494
:100DE000AF014A5C5A4FD0E04A2EAA0F5508EE24B4
:100DF000E394DD24D41515040CF080C0F90174913E
:100E0000F1E0FF1219C0A62E8A01F901B0E8BB2E4D
:100E1000A91608F052C09B2C972221F0D8019C9073
:100E2000982A9C92B69421F431967491A0E8BA2E37
:100E3000A3940F5F1F4FECCFF1101BC0882E80943E
:100E4000A62E8A01F901B0E8BB2EA91608F035C01C
:100E50009B2C972221F0D8019C9098209C92B694CC
:100E600021F431967491A0E8BA2EA3940F5F1F4F1E
:100E7000ECCFB3E0FB122AC0882E8094962E8A0114
:100E8000F901B0E8AB2E9916B8F4BA2CB72241F0AC
:100E9000D801BC907C2E792470FE0CC0B82ABC927C
:100EA000A69421F431967491A0E8AA2E93940F5F32
:100EB0001F4FE9CFB820F3CFCE25880F19F44C5A35
:100EC0005F4F81E0DF5F2C0D3D1D94CFA62E8A0180
:100ED000F901B0E8BB2EA91680F79B2C972221F0D0
:100EE000D8019C9098269C92B69421F431967491E6
:100EF000A0E8BA2EA3940F5F1F4FEDCFDF91CF91E3
:100F00001F910F91FF90EF90DF90CF90BF90AF9027
:100F10009F908F907F905F904F900895DC01643593
:100F200070F5403360F590968C919097E62F062EE1
:100F3000000CFF0B242F25952595259594E5290276
:100F4000E00DF11D1124EA5CFA4F2081342F377037
:100F50008230B1F4822F90E0032E02C095958795E0
:100F60000A94E2F780958170811114C081E090E0CD
:100F700001C0880F3A95EAF780958223808308950F
:100F8000833091F71C968C91817064276095617015
:100F90008613ECCF81E090E001C0880F3A95EAF724
:100FA000822BECCFAF92BF92CF92DF92EF92FF9263
:100FB0000F931F93CF93DF93182F062FC0E0D3E03A
:100FC0008AEFD82E9EEFE92E842F8470C82E842FAE
:100FD0008270B82E842F8870A82E4170F42ECF5FB7
:100FE0008C2F880F8F5FE80ECC2081F0402F4D0FA3
:100FF000612F6C0F81E298E00E948E07402F4C0F0A
:101000006D2F610F81E298E00E948E07BB2081F076
:10101000402F4D1B612F6C0F81E298E00E948E07DC
:10102000402F4C1B6D2F610F81E298E00E948E07CC
:10103000AA2081F0402F4C0F612F6D1B81E298E0B8
:101040000E948E07402F4D0F612F6C1B81E298E0AC
:101050000E948E07FF2081F0402F4C1B612F6D1BDB
:1010600081E298E00E948E07402F4D1B612F6C1B80
:1010700081E298E00E948E07CD173CF4E7FCAFCFE9
:10108000D150D394D394ED0CAACFDF91CF911F917F
:101090000F91FF90EF90DF90CF90BF90AF900895A9
:1010A000EF92FF920F931F93CF93DF938C01F62E55
:1010B000D42FE22EC0E0CE1544F46F2D6C0F4D2FCF
:1010C000C8010E948E07CF5FF6CFDF91CF911F91AD
:1010D0000F91FF90EF900895DF92EF92FF920F93A0
:1010E0001F93CF93DF937C01D62FD22EC42F002ED7
:1010F000000C110B040F111D47FD1A958C2F0C2E9F
:10110000000C990B8017910744F42D2D4C2F6D2F57
:10111000C7010E945008CF5FF1CFDF91CF911F919F
:101120000F91FF90EF90DF9008954F925F926F9232
:101130007F928F929F92AF92BF92CF92DF92EF9267
:10114000FF920F931F93CF93DF93EC016A3049F422
:1011500028859D818A85299F800D11248A8719867B
:10116000A6C06D3009F4A3C0898483E588150CF40A
:1011700087C0DA848FE28D150CF482C018852C812B
:101180002150330B129FC001139F900D1124880D25
:10119000911D87FC9A95181619060CF071C02D81C7
:1011A0008D2D0D2C000C990B129F800D911D11247B
:1011B000181619060CF064C078A0C82C912CE62EE5
:1011C000F12C292D092C000C330B8C8190E0281771
:1011D00039070CF054C00197E0E02817390771F087
:1011E000E89EF001E99EF00DF89EF00D11242E0FFF
:1011F0003F1FEE8DFF8DE20FF31FE4915D2C612CFC
:10120000492C480C2D81862D062C000C990B281793
:10121000190691F18CF1AE2EB12CE0FF16C0113001
:1012200061F4462D4D0D642DCE010E948E07F5010F
:10123000F595E7956394510EE5CF012F212F452DAC
:101240006C2DCE010E946C08F2CF89A198A189175C
:1012500071F388A3113041F4462D4D0D642DCE015C
:101260000E948E0778A2E3CF012F212F452D6C2DF0
:10127000CE010E946C08F6CF9394C10EA2CF78A243
:1012800028853C818985239F800D112489879F8132
:10129000992369F0082E000C990B44E550E0239F38
:1012A000401951091124481759070CF452CF81E015
:1012B00090E0DF91CF911F910F91FF90EF90DF9021
:1012C000CF90BF90AF909F908F907F906F905F90E6
:1012D0004F900895EF92FF920F931F93CF93DF9358
:1012E0008C01D62FF42EE22EC0E0CE1544F44F2D03
:1012F0004C0F6D2FC8010E948E07CF5FF6CFDF9194
:10130000CF911F910F91FF90EF9008958F929F9230
:10131000AF92BF92CF92DF92EF92FF920F931F9303
:10132000CF93DF93082FB62E942EA22E83E0F82EB3
:10133000D0E0C3E09AEFE92E1EEFCC24C394C20E96
:10134000DF5F1F0D2C2F220F4B2D4C1B8A2C8F0C77
:10135000DB2CDD1A81E02C0D602F981218C06D0F68
:1013600081E298E00E946A09282D4D2D6C2F600FB4
:1013700081E298E00E946A09DC179CF417FD04C022
:10138000C150E394E3941E0DF394F394D9CF6D1BF5
:1013900081E298E00E946A09282D4D2D602F6C1B78
:1013A000E7CFDF91CF911F910F91FF90EF90DF90EA
:1013B000CF90BF90AF909F908F900895E9E8F1E0B3
:1013C00090E080E051E05083DF01A858BC4F5C936F
:1013D00041E0009721F08731910509F040E0DF01FD
:1013E00021E030E058964C9358972F5F3F4F589626
:1013F00025323105B9F7019631968831910519F7F3
:101400000895E9E1F5E083E190E091838083138220
:101410001282EDE1F5E011821082138212820895AA
:10142000089590E080E00895CF93DF93EC01BC0134
:10143000990F880B990B0E946912409129082091FD
:101440002508429FA0011124489F9001499F300D1B
:10145000589F300D1124369527958AE2821B809380
:101460002A08BE0181E298E0DF91CF910C94F80444
:10147000FB0101900020E9F73197AF01461B570BA4
:10148000DC01ED91FC910280F381E02D0994CF9372
:10149000DF93BC0181E298E00E94F804EC016BE26A
:1014A00071E081E298E00E94380A8C0F9D1FDF9165
:1014B000CF910895E6E3F5E088EF91E0DF019C012C
:1014C0001D9221503040E1F710922A0810922B080B
:1014D00064E674E081E298E00E94F8040E9436031A
:1014E0008CB583608CBD8DB58E7F8DBD8EE291E015
:1014F000EEEFFFE30995109227088FE394E00E9436
:10150000470A0E9436030E94AD038091E8078130AC
:1015100039F062E370E080E090E00E94BF04F3CF16
:1015200008958F929F92AF92BF92EF92FF920F9386
:101530001F93CF93DF93CDB7DEB7A1970FB6F89483
:10154000DEBF0FBECDBF7C01FA01CB0119A2223054
:1015500008F42AE08E010F5D1F4F822E912CB12CD2
:10156000A12CBF01A50194010E945F1AF901CA01D3
:101570006A300CF5605DD8016E938D01232B242B0E
:10158000252B79F790E080E0109721F0BD01C7018D
:101590000E94380AA1960FB6F894DEBF0FBECDBFE9
:1015A000DF91CF911F910F91FF90EF90BF90AF907F
:1015B0009F908F900895695CDECFCF92DF92EF927B
:1015C000FF920F931F93CF93DF936B01770FEE087A
:1015D000FF08F7FE1BC0EC016DE20E94F1048C01D4
:1015E00044275527BA014C195D096E097F092AE085
:1015F000CE010E94910A800F911FDF91CF911F9120
:101600000F91FF90EF90DF90CF9008952AE0B701FF
:10161000A601DF91CF911F910F91FF90EF90DF9086
:10162000CF900C94910A4F925F926F927F928F921B
:101630009F92AF92BF92CF92DF92EF92FF920F9361
:101640001F93CF93DF9300D000D01F92CDB7DEB7AA
:101650004091530850915408609155087091560874
:101660002FB7F8948091320590913305A0913405FD
:10167000B09135052FBF481B590B6A0B7B0B80912E
:10168000520890E0B0E0A0E000914E0810914F08A1
:10169000209150083091510884179507A607B70785
:1016A00008F0CEC0011511052105310509F4C8C0A7
:1016B0002FB7F8948091320590913305A0913405AD
:1016C000B09135052FBF20915208820F911DA11DA9
:1016D000B11D8093530890935408A0935508B0937C
:1016E00056088091440890914508A0914608B09111
:1016F00047080196A11DB11D8093440890934508A9
:10170000A0934608B093470810924E0810924F08D5
:1017100010925008109251080E949A0460934A084F
:1017200070934B0880934C0890934D088091D40798
:101730009091D5072FE0289FA001299F500D1124DB
:101740005A83498385E10E945104A981BA818A0F95
:101750009B1FB4E096958795BA95E1F79093D507CE
:101760008093D4072091D307222309F448C06091C5
:10177000D707262F30E050E040E029833A834B839F
:101780005C83C090D807D12CF12CE12C4091DB0771
:101790005091DC074A01B12CA12C2091D90730913E
:1017A000DA072901712C612C8217930728F09C011C
:1017B0004817590708F49A0150E040E02419350908
:1017C0004609570969817A818B819C816C197D0951
:1017D0008E099F090E94BA1BA5019401241935099D
:1017E000460957090E942D1AC20ED31EE41EF51E8B
:1017F000C092D6076C2D70E085E00E94F4030E9431
:10180000AD038091EF079091F007892B11F00E94B2
:10181000630481E00F900F900F900F900F90DF9175
:10182000CF911F910F91FF90EF90DF90CF90BF90DD
:10183000AF909F908F907F906F905F904F900895A2
:10184000012B022B032B09F06EC18091EA07815016
:101850008E3F28F58091E907813009F58091FD07D9
:101860008F5F6091FE0787FD09C0082E000C990B61
:1018700070E06F5F7F4F0E94D61B682F6093FD075B
:1018800088E394E0909358088093570888E4809305
:10189000590865E274E088EF97E00E94380680916D
:1018A000EA0781508E3F70F48091E807813009F09B
:1018B00022C38BE294E0909358088093570888E401
:1018C000809359088091F807882331F08091F907B7
:1018D000811102C00E9450068091F907882309F403
:1018E0003EC080910D0881113AC080910508909109
:1018F0000608E0910A08F0910B08EE0FFF1FE80FB1
:10190000F91F259134912115310509F463C1A9010D
:101910005695479556954795842F20FD06C18F73A0
:1019200080930C088091FC07839F802D1124809365
:101930000D0810921D0810921C0810921B0881E0DF
:1019400080930F08809331051092100880910A0847
:1019500090910B08019690930B0880930A08809150
:101960000F08882341F080910D0881114FC188EF45
:1019700097E00E94290680915908882309F489C0BC
:101980008C3008F02DC23CE0381B3983FF24F394DF
:10199000F0922908109241081092420840912608BE
:1019A0004D831981141B042F0D5F4DE2410F2EE46E
:1019B00063E081E298E00E946C085D8154505D8391
:1019C000105D252F41E0612F80E50E9486092D8161
:1019D00042E0612F83E00E948609F0924108F09274
:1019E0004208009126081981101B8DE2F82EF10E95
:1019F0002EE44F2D63E081E298E00E94500883E0DE
:101A0000800F8F0D8D83482F41502EE463E081E2DB
:101A100098E00E9450080350105D202F412F60E095
:101A200081E298E00E946A09202F412F63E581E25C
:101A300098E00E946A0941E0612F83E00E94D2078A
:101A400042E0612F80E50E94D2079D8194509D83E2
:101A500044E0692F80E50E94D20748E06D8183E071
:101A60000E94D20784E080932A0880912608A981E9
:101A7000A81BA15DA0932B0860915708709158088E
:101A800081E298E00E94F804809159088150809387
:101A900059088091EF079091F007892BE1F0B1E0B0
:101AA000B0934108109242089091250885E5891B62
:101AB00080932A0810922B086091EC07613009F49A
:101AC000FEC108F48FC18091EB07653008F00EC2AB
:101AD0006B5F811106C20E94360380912708811135
:101AE0000EC0E6E3F5E088EF91E0DF019C011D9276
:101AF00021503040E1F710922A0810922B080E94E2
:101B00009A0460934E0870934F0880935008909306
:101B1000510820914A0830914B08621B730B709357
:101B200049086093480880E075CEC901E6E09695C3
:101B30008795EA95E1F78F71932F969596959695EF
:101B400090514F70423099F1D0F4442309F43CC0D5
:101B50004130B9F1E0910A08F0910B083196F09309
:101B60000B08E0930A08CF01880F991FE091050840
:101B7000F0910608E80FF91F25913491C8CE433043
:101B800061F0443039F72091FC07289F802D112403
:101B90008093150890931608DDCF2091FC07289FAD
:101BA000802D11248093130890931408D3CF209193
:101BB000FC07289F802D1124809311089093120810
:101BC000C9CF0E949402C6CF8B3008F08AE0809380
:101BD0000E08C0CF20910908211112C01092F907F8
:101BE0008091F807811105C088EF97E00E942906CF
:101BF000B6CE0E94500680910A0890910B08B4CF8F
:101C000010920B0810920A08FC01B6CF8150809305
:101C10000D0880911D08811142C020911B08309150
:101C20001C082F5F3F4FC901880F991FE0911708CB
:101C3000F0911808E80FF91F85919491482F47708B
:101C400040931E08492F4695469540931F08AC01C6
:101C500064E0569547956A95E1F74F739091FC07BC
:101C6000499F402D112440931D0883FB882780F94C
:101C70008093300530931C0820931B08809119082D
:101C800090E02817390758F020911A08222309F408
:101C90009FC0821B910990931C0880931B08809120
:101CA0001D08815080931D088091100831E0380F85
:101CB0003093100840910C0820911F08240F809148
:101CC0000408280F2093FA0760911308662371F027
:101CD00070E0832F032E000C990B0E94D61B80917D
:101CE0001408869F200D11242093FA078091FA078B
:101CF00090E0849664E270E00E94D61B8093FA071D
:101D000020910E082093FB0760911108662381F053
:101D1000062E000C770B832F032E000C990B0E94CC
:101D2000D61B80911208869F200D11242093FB075B
:101D3000609115086623A1F0832F330F990B70E093
:101D40000E94D61BCB0162E070E00E94D61B20915E
:101D500016089091FB07289F900D11249093FB0784
:101D60004F3309F43AC08091FB078A300CF089E0C8
:101D700087FD80E08093FB07F894E091FA07F0E09C
:101D8000EF5FFB4FE491E0932F0520912008309105
:101D9000FB0732039001112440911E084203C00149
:101DA000439F900D11242091FD0702C0880F991FB9
:101DB0002A95E2F797FF02C081589F4F880F892F1D
:101DC000881F990B80932E0580932D057894D3CD91
:101DD00088EF97E00E94290662CF1092FB07CCCFD4
:101DE0001982D4CD88EF97E00E9429061092F90756
:101DF00021E020932908EFE7F2E0E491EF5FE09320
:101E00002508E0E8F2E0E491EF5FE093260881E83E
:101E100092E09093400880933F081092F007109250
:101E2000EF071092270838EA39830E94130B8823A2
:101E3000E1F361E772E081E298E00E94F8044091EA
:101E4000ED075091EE0770E060E02AE081E298E053
:101E50000E94910A6CE572E081E298E00E94F80429
:101E6000698162956F7070E081E298E00E94DD0AFE
:101E700061E572E081E298E00E94F8048091E80751
:101E8000813009F428CE4981415049834111CDCF99
:101E900070E060E085E00E94F40383B7817F846096
:101EA00083BF83B7816083BF83B7816083BF889519
:101EB00083B78E7F83BF83B78E7F83BFB6CF80917A
:101EC000440890914508A0914608B09147088F704A
:101ED0009927AA27BB2767E00897A105B10508F055
:101EE00068E781E298E00E94F104F5CD882309F4C7
:101EF000F2CD6FE2F6CF893209F0E4CC0E945A0AA3
:101F0000E1CCCF92DF92EF92FF920F931F93CF938A
:101F1000DF9381E080932908109228081092270807
:101F20001092EB078093410880934208CDEBD1E0FB
:101F30001CE00E94130B8823E1F3FE0104910111C0
:101F40000091260821EE31E040E060E081E298E077
:101F50000E947B064CE0400F2BEC30E060E081E219
:101F600098E00E947B0610922A0810932B086DEBD4
:101F700071E081E298E00E94F80480912508982F92
:101F8000990F990F891B8D5A80932A0880912608F2
:101F9000982F990F990F891B835D80932B0880914F
:101FA000440884FF6AC08DED91E00E94470A809149
:101FB0002508982F990F990F891B8D5A80932A080D
:101FC00080912B088F5F80932B088091FD078823D9
:101FD00009F456C085ED91E00E94470A80912508DA
:101FE000982F990F990F891B8D5A80932A088091F9
:101FF0002B088F5F80932B088DEC91E00E94470A9D
:102000008091E9078130C1F48091FD078F5F609175
:10201000FE0787FD09C0082E000C990B70E06F5F6A
:102020007F4F0E94D61B682F6093FD0765E274E026
:1020300088EF97E00E9438068091E807813019F117
:1020400080914308482F50E070E060E0C090440861
:10205000D0904508E0904608F0904708C416D50691
:10206000E606F70610F08F3F71F48091EA078130A1
:1020700009F05FCF0E945A0A5CCF89ED91E095CFBD
:1020800081ED91E0A9CF8FEF8093430888EF97E02F
:102090000E9429061092F90763EC70E088EF97E040
:1020A0000E94380681E08093EB07DF91CF911F916A
:1020B0000F91FF90EF90DF90CF9008952F923F9275
:1020C0004F925F926F927F928F929F92AF92BF9248
:1020D000CF92DF92EF92FF920F931F93CF93DF93F4
:1020E00000D000D000D0CDB7DEB701E611E089E323
:1020F00091E09E838D83312C212C28E2C22ED12C9D
:10210000E12CF12C8091090190910A01A0910B0121
:10211000B0910C0189839A83AB83BC8380910301C6
:102120009091040128163906CCF189819A81AB81FE
:10213000BC81F80180839183A283B383AD81BE818A
:1021400011961C921E9213961C921E921297FFEFEC
:102150002F1A3F0A0C5F1F4F8D819E8104969E832C
:102160008D839AE029163104C9F626960FB6F894A5
:10217000DEBF0FBECDBFDF91CF911F910F91FF90BA
:10218000EF90DF90CF90BF90AF909F908F907F9017
:102190006F905F904F903F902F9008950E94D519B7
:1021A0004B015C010E94D5192B013C01C501B40112
:1021B00022E130E040E050E00E942D1A665F7F4F40
:1021C0008F4F9F4FF80171836083C301B20124E0F8
:1021D00030E040E050E00E942D1A665F7F4F8F4F45
:1021E0009F4FD80113967C936E9312970E94D51936
:1021F000A70196010E942D1A65317105810591058F
:10220000BCF4AA24A394B12C0E94D519A70196016D
:102210000E942D1A65317105810591056CF481E0EC
:1022200090E0ED81FE81B182A082938382838FCF83
:10223000AA24AA94BA2CE8CF8FEF9FEFF2CF8F9207
:102240009F92AF92BF92CF92DF92EF92FF92C09097
:10225000ED07D090EE07C094D094F12CE12C0E94B1
:102260009A044B015C010E949A04A50194012095F7
:1022700030954095509560957095809590950E9409
:10228000BA1B9B01AC01C701B6010E94BA1B4B01EE
:102290005C01C090D407D090D507F12CE12C0E94AE
:1022A0009A046C0D7D1D8E1D9F1D680D791D8A1D64
:1022B0009B1D611571058105910511F00E94241A7D
:1022C00010922505109227051092260583E090E0D4
:1022D000909302018093010181E090E090930401CA
:1022E000809303010E94010A0E94DE090E945E1091
:1022F00063EC70E088EF97E0FF90EF90DF90CF9075
:10230000BF90AF909F908F900C9438061F920F92C1
:102310000FB60F9211242F933F938F939F93AF93F8
:10232000BF938091320590913305A0913405B0910F
:1023300035053091280523E0230F2D3758F50196F8
:10234000A11DB11D2093280580933205909333057C
:10235000A0933405B09335058091290590912A0505
:10236000A0912B05B0912C050196A11DB11D809364
:10237000290590932A05A0932B05B0932C05BF91B6
:10238000AF919F918F913F912F910F900FBE0F9022
:102390001F90189526E8230F0296A11DB11DD2CFDC
:1023A0001F920F920FB60F9211242F933F934F93CA
:1023B0005F936F937F938F939F93AF93BF93EF93AD
:1023C000FF9386E397E00E949A05FF91EF91BF91FA
:1023D000AF919F918F917F916F915F914F913F91BD
:1023E0002F910F900FBE0F901F9018951F920F9274
:1023F0000FB60F9211242F938F939F93EF93FF9318
:10240000E0914607F09147078081E0914C07F091F9
:102410004D0782FD1BC0908180914F078F5F8F73A6
:1024200020915007821741F0E0914F07F0E0EA5CFD
:10243000F84F958F80934F07FF91EF919F918F9168
:102440002F910F900FBE0F901F9018958081F4CFA1
:102450001F920F920FB60F9211242F936F937F93B9
:102460008F939F9360912E05662349F180913601E9
:102470008F5F8093360190912F05891700F120918D
:10248000310581E028272093310510923601809193
:102490003005882369F08091000193E4899F802DA5
:1024A0001124895B809300010E94CA1B90932D0523
:1024B00080912D05211101C080E08093B4009F918F
:1024C0008F917F916F912F910F900FBE0F901F9062
:1024D0001895FB0105900020E9F7609570956E0F47
:1024E0007F1FCB010895E6E3F7E01382128288EEA6
:1024F00093E0A0E0B0E084839583A683B78381E175
:1025000091E09183808385EC90E09587848784ECCB
:1025100090E09787868780EC90E0918B808B81ECB0
:1025200090E0938B828B82EC90E0958B848B86EC91
:1025300090E0978B868B118E128E138E148E1092D4
:1025400024081092230883E291E09093220880935C
:1025500021080895CF93DF93CDB7DEB728970FB644
:10256000F894DEBF0FBECDBF789484B5826084BD81
:1025700084B5816084BD85B5826085BD85B5816087
:1025800085BD80916E00816080936E001092810005
:1025900080918100826080938100809181008160C0
:1025A0008093810080918000816080938000809181
:1025B000B10084608093B1008091B000816080930D
:1025C000B00080917A00846080937A0080917A00D4
:1025D000826080937A0080917A00816080937A0093
:1025E00080917A00806880937A001092C100E09117
:1025F0004607F091470782E08083E0914207F0911F
:1026000043071082E0914407F09145078FEC8083E7
:1026100010924E07E0914A07F0914B0786E08083C5
:10262000E0914807F0914907808180618083E091C3
:102630004807F0914907808188608083E0914807CE
:10264000F0914907808180688083E0914807F0918C
:10265000490780818F7D808382E38093520881E0E7
:1026600090E0A0E0B0E080934E0890934F08A093D4
:102670005008B09351088FEF80934308E0E8F7E7E4
:10268000259134912130304C09F023C2E6E9F7E777
:10269000E491E0932C08E7E9F7E7E491E093D707AA
:1026A000E8E9F7E7E491E093D807E9E9F7E78591EE
:1026B00094919093DA078093D907EBE9F7E7859136
:1026C00094919093DC078093DB0787E08093FE076B
:1026D000EEE9F7E7E491E093FD07EFE9F7E7E4912E
:1026E000E0934308E0EAF7E7859194919093F0072F
:1026F0008093EF07E2EAF7E7859194919093F207D0
:102700008093F107E4EAF7E7859194919093F407B9
:102710008093F307E6EAF7E7859194919093F607A3
:102720008093F50751E05093D3076FEF70E085E099
:102730000E94F40388E08093DD0789E08093DE0740
:1027400087E08093DF0786E08093E00764E0609392
:10275000E10782E08093E20781E18093E3070E9432
:10276000AD038CE39FE09093EE078093ED0784E048
:102770008093EC0791E09093F7078BE080932F080C
:102780008DE080932E0880E1809330088EE0809366
:1027900032088FE080933108909329089093410884
:1027A0001092420890932808EFE7F2E0E491EF5F7F
:1027B000E0932508E0E8F2E0E491EF5FE09326087B
:1027C00081E892E09093400880933F08AFB6A982D9
:1027D000F89480913701811127C0E0EAF4E08491F8
:1027E000E4EBF4E09491E82FF0E0EE0FFF1FE155E9
:1027F000FF4FA591B491EC91E92321F461E08AE0C7
:102800000E94E90261E08AE00E9471038CB5806158
:102810008CBD8CB580648CBD61E08DE00E9471033D
:1028200061E08BE00E947103809137018F5F80939C
:102830003701A980AFBE8CB58F7D8CBD8CB58C7FE8
:1028400081608CBD8DB581608DBD8CB58C608CBD7B
:1028500061E080912F080E94710361E080912E0851
:102860000E94710361E0809130080E9471038091A1
:10287000320818161CF461E00E947103809131083F
:1028800018161CF461E00E9471038091320818163A
:1028900074F460E00E94E9026AE070E080E090E099
:1028A0000E94BF0461E0809132080E94E902809199
:1028B0002E08082E000C990BFC01EA56FB4FE49100
:1028C000F0E0EE0FFF1FE754FF4F25913491309356
:1028D000360820933508FC01E655FB4FE491E09360
:1028E0003C0880912F08082E000C990BFC01EA5639
:1028F000FB4FE491F0E0EE0FFF1FE754FF4F2591EF
:1029000034913093340820933308FC01E655FB4F93
:10291000E491E0933B0880913108082E000C990B5C
:10292000FC01EA56FB4FE491F0E0EE0FFF1FE75485
:10293000FF4F259134913093380820933708FC01DC
:10294000E655FB4FE491E0933D0880913008082E56
:10295000000C990BFC01EA56FB4FE491F0E0EE0FFE
:10296000FF1FE754FF4F2591349130933A0820938D
:102970003908FC01E655FB4FE491E0933E0881E203
:102980000E94170384E10E94170380912C0887FF9F
:1029900003C08FE780932C0880912C0880680E94E8
:1029A000170380E20E9417038CE00E9417030E9425
:1029B000360381E08093FC0784E08093200880E761
:1029C00090E0909308088093070880E00E949402AA
:1029D00061E070E083E00E94F4038091B100887FA1
:1029E00081608093B100F894109280001092810071
:1029F000109285001092840088E191E09093890004
:102A0000809388008091810088608093810080910C
:102A1000810081608093810080916F00826080934B
:102A20006F0078948091EF079091F007892B11F057
:102A30000E9463048091E907813009F477C0809196
:102A4000EC07882309F472C064E770E088EF97E030
:102A50000E9438061092EB078091430881110E9472
:102A6000810F0E941F110E94130B182F882309F455
:102A70004DC38091EA07813039F480914308811178
:102A80000E94810F0E941F1180912705811129C288
:102A900080912605811125C29091E907913029F492
:102AA00080912505892780932505B0902505B110D3
:102AB000BFC38091E6078130E1F18091E407813066
:102AC00009F024C14FEF5FEF50931E0540931D05A1
:102AD00036C09CE390932C081092D7078093D807B8
:102AE00080E293E09093DA078093D90784ED93E036
:102AF0009093DC078093DB0787E08093FE07809349
:102B0000FD078CEA9DE09093F0078093EF078EED30
:102B10009DE09093F2078093F10784E79EE0909305
:102B2000F4078093F3078CE39FE0F8CD1092FD0744
:102B300091CF21E030E030931E0520931D051092C7
:102B4000200510921F058FB7F894409032055090E1
:102B5000330560903405709035058FBF8091210555
:102B600090912205A0912305B0912405A301920123
:102B7000281B390B4A0B5B0BDA01C901883C910514
:102B8000A105B10508F454C32091190530911A0527
:102B900080911B0590911C0548E1429FF001439FE5
:102BA000F00D1124E757FE4FE80FF91F00810111C6
:102BB00002C042E0408340911D0550911E05413006
:102BC000510509F0BEC02532310534F42F5F3F4F67
:102BD00030931A052093190520911F053091200587
:102BE0002130310509F0B8C0873191052CF40196E8
:102BF00090931C0580931B05E0900301F090040165
:102C00002090190530901A05E0911B05F0911C05E4
:102C1000FA83E983E9E3F1E091E6C92E91E0D92E48
:102C2000DE82CD82912C812C8E149F040CF09EC0EC
:102C3000AD81BE816D917C91119720813181129679
:102C40004D915C91DB01A20FB31F88E1A82EAA9ED3
:102C5000C001AB9E900D112498878F8387579E4F9C
:102C6000840F951FDC018C91813029F431952195D9
:102C700031093183208322813381B8E1B69FC001BD
:102C8000B79F900D112487579E4F840F951F820F79
:102C9000931FDC018C91813029F431952195310904
:102CA0003383228380819181680F791FAD81BE813A
:102CB00011967C936E9382819381840F951F139656
:102CC0009C938E9312976215730531F429813A8192
:102CD0008217930709F4B12E38E1369FA001379F80
:102CE000500D112447575E4F480F591FDA018C9140
:102CF000823009F4B12EBFEF8B1A9B0A34962D81D6
:102D00003E812C5F3F4F3E832D838ECF8091E7071E
:102D1000813059F481E090E09093200580931F0565
:102D200010921E0510921D050ECF8091E50781308F
:102D300009F009CFAFEFBFEFB0932005A0931F05B7
:102D4000EFCF4F3F5F4F09F047CF121613060CF03D
:102D500043CF215031093CCF2F3F3F4F09F04CCF9B
:102D6000181619060CF048CF019742CFB1100FC0CA
:102D700038E1329DF001339DF00D1124E757FE4FED
:102D800049815A81E40FF51F8081823059F50E94F4
:102D9000010A89E891E0FC0130E020E04081423006
:102DA00009F410822F5F3F4F789626323105B1F734
:102DB000019651E0813A950771F76CE870E088EF71
:102DC00097E00E94380680910101909102010197DD
:102DD0009093020180930101181619061CF061E01E
:102DE000609327058091270581111AC280911D05E6
:102DF00090911E05892B39F480911F059091200533
:102E0000892B09F40DC28091190590911A05A8E14A
:102E1000A89FF001A99FF00D1124E757FE4F809164
:102E20001B0590911C05E80FF91F8081013009F402
:102E3000F7C1813009F0F4C165E274E088EF97E0F2
:102E40000E94380669E871E09B01F90190E080E09A
:102E50004081423061F5B1E0B083019678968632C8
:102E60009105B1F72F5F3F4F41EA51E042175307F9
:102E700061F750E040E04E155F050CF054C1D601FB
:102E8000ED91FC91B8E1BE9FC001BF9F900D112450
:102E900087579E4FD6011296ED91FC91E80FF91FCE
:102EA00010824F5F5F4FB4E0CB0ED11CE4CF4111D5
:102EB000D4CFA3E0AA2EA082D0CF0E94010A0E9404
:102EC000DE095FEFE51AF50AF0920401E0920301D2
:102ED0000E945E1063EC70E088EF97E00E94380675
:102EE00082C18091E807813009F0A2C10E941F11C0
:102EF0009FC1823009F0B5C128E830E0412F6B2D29
:102F000081E298E00E947B06ACC1F1E0F0934108B9
:102F1000F093420800E328E040E06CE481E298E0AE
:102F20000E946C08109241081092420842E0F42E70
:102F300010E000E08091010190910201081719074B
:102F400074F422E830E04F2D6DE481E298E00E94B5
:102F50007B060F5F1F4F35E0A32EFA0CEBCF21E06D
:102F6000209329083DE430932A08909126088EE2A8
:102F7000891B80932B08B40181E298E00E94DD0A4E
:102F800080913801882309F46AC024EFF22EF80EEC
:102F90008C3008F0F12C60E070E0CB010E946912E7
:102FA0001091290890912508199F102D1124189F20
:102FB000102D112441E0409329084093410840938B
:102FC0004208E090260882E0B82EBE0C92E0992ECE
:102FD000910EDD24DA94DF0CC12EC69408E20C19A0
:102FE000292D4D2D602F81E298E00E94500841E08C
:102FF0004E0D4D0D292D602F81E298E00E94500862
:103000002B2D4D2D602F81E298E00E946A091F5FF1
:10301000602F610F2B2D4D2D81E298E00E946A09EF
:103020001092410810924208009126080F5F69E251
:103030006C19212F4D2D81E298E00E946C0851E01F
:103040005093410850934208F0922B0890E080E0A2
:103050000E94140A80913801815080933801809138
:1030600025058823C9F010922B0810924108109270
:103070004208009126080F5F24E540E060E081E20D
:1030800098E00E946C0861E06093410860934208F8
:1030900087EA90E00E94140A809127058823C9F0EE
:1030A00010922B08109241081092420800912608B5
:1030B0000F5F24E540E060E081E298E00E946C0848
:1030C00081E080934108809342088BE990E00E9460
:1030D000140A809126058823C9F010922B081092BB
:1030E000410810924208009126080F5F24E540E055
:1030F00060E081E298E00E946C0891E090934108C2
:103100009093420884E990E00E94140AA0E0B0E0A5
:10311000AB2B09F4A8CC0E948605882309F4A3CC24
:103120000E940000A0CC00E090E080E0FC01E757A6
:10313000FE4F50E040E0A081A330F1F482309105D1
:1031400044F0DF011197AC91AA23A1F087319105DA
:1031500019F0A181AA2371F04230510544F0DF013A
:103160005897AC91AA2331F04532510529F0A08D32
:10317000A11102C01082012F4F5F5F4F7896463237
:103180005105C9F601968831910581F60111CBCF21
:1031900090E080E0FB0150E040E0A081A33019F412
:1031A000AA24A394A082A081A13009F401964F5FC4
:1031B0005F4F78964632510581F76F5F7F4F261734
:1031C000370741F7833A924074F03AE0E316F1048E
:1031D00009F073CE63EC70E088EF97E00E94380648
:1031E00041E0409326058091190590911A05B8E1B8
:1031F000B89FF001B99FF00D1124E757FE4F809161
:103200001B0590911C05E80FF91F8081813041F466
:1032100010921E0510921D051092200510921F0598
:103220004092210550922205609223057092240558
:1032300061E06093410860934208F9E8EF2EF1E005
:10324000FF2E10E06701B12CD6018C91813009F07E
:1032500050CE02E022E0412F6B2D81E298E00E94E7
:103260006C08B8E1CB0ED11CB394B394ECE4BE125D
:10327000EBCF1E5FFFEFEF1AFF0A103319F76091D3
:10328000190570911A0540911B0550911C05E8E144
:10329000AE2EA69EF001A79EF00D1124E757FE4F1B
:1032A000E40FF51F81E09081911180E08093410847
:1032B00080934208440F660F02E022E081E298E02A
:1032C0000E946C0821E0209341082093420851E6B7
:1032D000E52E51E0F52ED12CC12C80900301909069
:1032E0000401C814D9040CF010CED70112964C91E9
:1032F0001297440F6C91660F02E022E081E298E0A1
:103300000E946C08BFEFCB1ADB0AE4E0EE0EF11C62
:10331000E4CF8F929F92AF92BF92CF92DF92EF92C3
:10332000FF92CF93DF93EC01688179818A819B8141
:10333000611571058105910521F464E279ED8BE554
:1033400097E02DE133EF41E050E00E942D1A490152
:103350005A019B01AC01A7EAB1E40E944C1A6B012F
:103360007C01ACEEB4EFA50194010E945A1AC60E7E
:10337000D71EE81EF91EF7FE06C081E0C81AD10864
:10338000E10880E8F80AC882D982EA82FB82C70194
:10339000B6019F77DF91CF91FF90EF90DF90CF90B4
:1033A000BF90AF909F908F9008958F929F92AF9211
:1033B000BF92CF92DF92EF92FF92609105017091E0
:1033C0000601809107019091080161157105810541
:1033D000910521F464E279ED8BE597E02DE133EF7F
:1033E00041E050E00E942D1A49015A019B01AC01B5
:1033F000A7EAB1E40E944C1A6B017C01ACEEB4EF79
:10340000A50194010E945A1AC60ED71EE81EF91E85
:10341000F7FE06C081E0C81AD108E10880E8F80A82
:10342000C0920501D0920601E0920701F0920801D6
:10343000C701B6019F77FF90EF90DF90CF90BF90CC
:10344000AF909F908F90089560930501709306014F
:1034500080930701909308010895052E97FB1EF4B1
:1034600000940E94441A57FD07D00E945F1A07FC7F
:1034700003D04EF40C94441A509540953095219504
:103480003F4F4F4F5F4F0895909580957095619590
:103490007F4F8F4F9F4F08950E94811AA59F900DD7
:1034A000B49F900DA49F800D911D11240895B7FF26
:1034B0000C944C1A0E944C1A821B930B0895A1E2A3
:1034C0001A2EAA1BBB1BFD010DC0AA1FBB1FEE1F9E
:1034D000FF1FA217B307E407F50720F0A21BB30BE9
:1034E000E40BF50B661F771F881F991F1A9469F765
:1034F00060957095809590959B01AC01BD01CF01C1
:103500000895A29FB001B39FC001A39F700D811DBC
:103510001124911DB29F700D811D1124911D0895DC
:103520000E94041B88F09F5798F0B92F9927B75134
:10353000B0F0E1F0660F771F881F991F1AF0BA9557
:10354000C9F714C0B13091F00E941E1BB1E008957C
:103550000C941E1B672F782F8827B85F39F0B93F6E
:10356000CCF3869577956795B395D9F73EF490950A
:103570008095709561957F4F8F4F9F4F0895E89488
:1035800009C097FB3EF490958095709561957F4FAB
:103590008F4F9F4F9923A9F0F92F96E9BB27939559
:1035A000F695879577956795B795F111F8CFFAF469
:1035B000BB0F11F460FF1BC06F5F7F4F8F4F9F4F9A
:1035C00016C0882311F096E911C0772321F09EE8F8
:1035D000872F762F05C0662371F096E8862F70E05E
:1035E00060E02AF09A95660F771F881FDAF7880F38
:1035F0009695879597F9089557FD9058440F551F54
:1036000059F05F3F71F04795880F97FB991F61F064
:103610009F3F79F087950895121613061406551FDB
:10362000F2CF4695F1DF08C0161617061806991F47
:10363000F1CF86957105610508940895E894BB273C
:1036400066277727CB0197F908950E94381B0C94C1
:10365000A91B0E949B1B38F00E94A21B20F09523FF
:1036600011F00C94921B0C94981B11240C941F1BAA
:103670000E94FC1A70F3959FC1F3950F50E0551FFF
:10368000629FF001729FBB27F00DB11D639FAA27B7
:10369000F00DB11DAA1F649F6627B00DA11D661F06
:1036A000829F2227B00DA11D621F739FB00DA11D27
:1036B000621F839FA00D611D221F749F3327A00DE1
:1036C000611D231F849F600D211D822F762F6A2F7D
:1036D00011249F5750409AF0F1F088234AF0EE0FE2
:1036E000FF1FBB1F661F771F881F91505040A9F70F
:1036F0009E3F510580F00C94921B0C941F1B5F3F62
:10370000E4F3983ED4F3869577956795B795F7954A
:10371000E7959F5FC1F7FE2B880F911D96958795C2
:1037200097F9089597F99F6780E870E060E0089541
:103730009FEF80EC089500240A94161617061806C9
:103740000906089500240A941216130614060506A5
:103750000895092E0394000C11F4882352F0BB0F36
:1037600040F4BF2B11F460FF04C06F5F7F4F8F4F99
:103770009F4F0895DB018F939F930E944C1ABF9136
:10378000AF91A29F800D911DA39F900DB29F900DB0
:1037900011240895991B79E004C0991F961708F029
:1037A000961B881F7A95C9F78095089597FB072E79
:1037B00016F4009407D077FD09D00E94EA1B07FC9D
:1037C00005D03EF4909581959F4F08957095619531
:1037D0007F4F0895AA1BBB1B51E107C0AA1FBB1F47
:1037E000A617B70710F0A61BB70B881F991F5A958D
:1037F000A9F780959095BC01CD010895EE0FFF1FAC
:0C3800000590F491E02D0994F894FFCF9E
:10380C00010300010001000000FFFFFFFF000000AA
:10381C0000BC051C05490509067A0558056C050010
:10382C0000000095081C05110A100A0D0A004C4FE7
:06383C004144455200006A
:00000001FF
