:100000000C9472020C949A020C949A020C949A0228
:100010000C949A020C949A020C949A020C949A02F0
:100020000C949A020C949A020C949A020C9430123A
:100030000C949A020C949A020C949A020C949A02D0
:100040000C948E110C949A020C94FE110C94D811FD
:100050000C949A020C949A020C949A020C949A02B0
:100060000C949A020C949A020101FF030101F70318
:100070006C0068000500893008023802497868146D
:1000800000000504D8F870200202804005006801D5
:10009000380100002050415553452000204C657622
:1000A000656C20557020002047616D65206F766576
:1000B00072200020596F7520576F6E2120000000BC
:1000C0000000240027002A0000000000250028006E
:1000D0002B000500380168010000401E00000000F0
:1000E0000000000000000000000000003FFFFFFFD4
:1000F000FFFFFFF800000000000000080000000003
:100100000000000800000000001C000800000000C3
:10011000001C000800000000001C00080000000097
:10012000000000C80003800000007D0801E6000018
:10013000003E3D0807C200000F0E1E0801F200013C
:10014000F38E1E08007401E0E38E0F08003C0338B4
:10015000E38E1708003C0338E38E17C8001C0738ED
:10016000E38E3388001F0738E3CF8008002F07187D
:10017000FBE000080063C198F00000080041E0F0D7
:10018000000222080041F0000001240800E3000002
:100190000000F8080180000000018808000000004D
:1001A00000008FF80000000000018800000000003F
:1001B0000000F80000000000000124000000000022
:1001C000000222000000000000000000586F6E696D
:1001D0007820627920546E784563320017534400CA
:1001E00016137800161314001510200015201000A7
:1001F000540A03E181867F3E186D830F0F0E018341
:10020000866033186DC3198F1803C38E6033186D61
:10021000E330CF1803C39E603630CDE360CF3006A5
:10022000C79E7E3E30CDB360CF300CC6F660333013
:10023000D9B660CF33CFCCF66061B0DB1E60CF3073
:10024000D86CE6C061B0DB1E618F19986CC6C063C4
:10025000B19B0E330F0FB078C6FF7E1F1B061E0F1B
:100260000A0A153A49676E6F7265006D560A0A50A0
:100270004C45415345205455524E204F4646200090
:100280004C4F5720424154544552592120000305F8
:100290003F213F1208120A100A0E1C0E0C1E0C14ED
:1002A0001A14161F161E131E1E1B1E1E1F1E3F2174
:1002B0003F3A2F3A173D173F213F181F02040A0407
:1002C0001F0E04040E1F0A1F0A0E0E1F04110E2E0D
:1002D000252E2F2A2E262929021F02081F08150E57
:1002E00004040E150E15151B151B040604040C043E
:1002F0000000000017000300031F0A1F16371A1919
:1003000004130A153A000300000E11110E000A042E
:100310000A040E0400300004040400100018040352
:100320001F111F121F101D151711151F07041F176E
:10033000151D1F151D01011F1F151F17151F000A71
:1003400000003200040A110A0A0A110A0401150207
:100350000E11171E051E1F150A0E110A1F110E1F62
:1003600015111F05010E111D1F041F111F1108106B
:100370000F1F041B1F10101F061F1E040F0E110E4F
:100380001F09060E112E1F051A121509011F011F44
:10039000101F0F180F1F0C1F1B041B031C03191524
:1003A00013001F11030418111F0002010220202056
:1003B0000001020C121E1F120C0C12120C121F0C48
:1003C0001A14041E05242A1E1F021C141D102020AE
:1003D0001D1F0814111F101E041E1E021C0C120CDF
:1003E0003E0A040C123E1E040214160A020F120EDC
:1003F000101E0E100E1E081E120C1226281E322A67
:1004000026041E21001F00211E040102013F213F7E
:10041000F6E8DBCFC3B8AEA49B928A827B746E6889
:10042000625C57524E4945413E3A3734312E2C29B1
:1004300027252321450068010000172B15201020D7
:100440004C4F4144455200172B16201314000A4EFE
:100450006F2053442063617264206F720A6E6F20B4
:100460004C4F414445522E4845580A0A153A4578A2
:100470006974001D20466C617368696E670A2020EC
:100480006C6F616465722E2E2E0A0A444F4E2754FB
:10049000205455524E204F464621000000000023B4
:1004A00000260029000404040404040404020202D7
:1004B00002020203030303030301020408102040A5
:1004C000800102040810200102040810200000002E
:1004D0000800020100000304070000000000000003
:1004E00000007B1211241FBECFEFD8E0DEBFCDBFCE
:1004F00011E0A0E0B1E0E2EFF8E302C005900D9258
:10050000A633B107D9F728E0A6E3B1E001C01D92F8
:10051000AB35B207E1F712E0C2E7D2E004C02197A1
:10052000FE010E94711CC137D107C9F70E94B212A7
:100530000C94771C0C94000090E0880F991FE091B8
:100540000808F0910908E80FF91F259134913093BC
:10055000190820931808F901859194919091FD074D
:10056000989F802D112480931A08F9016591749148
:10057000472F50E08417150629F020F0F901259146
:100580003491832F989F802D112480931B08089508
:10059000833081F028F4813099F08230A9F00895F9
:1005A0008730A9F08830C9F08430B1F480918000A0
:1005B0008F7D03C0809180008F77809380000895A5
:1005C00084B58F7784BD089584B58F7DFBCF8091EE
:1005D000B0008F778093B00008958091B0008F7D38
:1005E000F9CF1F93CF93DF93282F30E0F901E35326
:1005F000FB4F8491F901E754FB4FD491F901EB557E
:10060000FB4FC491CC23A9F0162F81110E94C80280
:10061000EC2FF0E0EE0FFF1FE853FF4FA591B491D0
:100620008FB7F894EC91111108C0D095DE23DC93BC
:100630008FBFDF91CF911F910895DE2BF8CFCF931D
:10064000C82FF89460E0809131080E94F1028091F7
:10065000320818161CF460E00E94F102CEBD0000C2
:100660000DB407FEFDCF8EB58091320818161CF42C
:1006700061E00E94F1027894CF9108950F931F9347
:10068000CF9380912E088F5F80932E0807E315E0AB
:10069000C0E08C2F80640E941F0380E80E941F032B
:1006A00061E0809131080E94F102809132081816B1
:1006B0001CF460E00E94F102F80184E591919EBD76
:1006C00000000DB407FEFDCF9EB58150B9F78091B3
:1006D000320818161CF461E00E94F102CF5F0C5A38
:1006E0001F4FC630B1F680E4CF911F910F910C944B
:1006F0001F03CF93DF9390E0FC01E754FB4F24915D
:100700008B559B4FFC0184918823C9F090E0880FA2
:10071000991FFC01E254FF4FA591B491FC01E853ED
:10072000FF4FC591D49161110DC09FB7F8948C9182
:10073000209582238C938881282328839FBFDF9173
:10074000CF910895623051F49FB7F8943C91822F75
:10075000809583238C93E8812E2BEFCF8FB7F8946D
:10076000EC912E2B2C938FBFEACFFF920F931F9308
:10077000CF93DF93C4EDD7E0FF24FA9462E08A853B
:100780000E9479032A8530E0F901E353FB4F8491FD
:10079000F901E754FB4F0491F901EB55FB4F14911C
:1007A0001123E1F081110E94C802E12FF0E0EE0F69
:1007B000FF1FE556FB4FA591B491EC9189890E235B
:1007C00069F0811113C0219687E0CB3DD807B1F6BF
:1007D000DF91CF911F910F91FF90089589898F5FCD
:1007E000898B60E08A850E947903EDCF8F3F11F4F9
:1007F000198AF7CFF98AF5CF1F93CF93DF93182F7C
:10080000EB0161E00E947903209739F460E0812FC9
:10081000DF91CF911F910C94F102CF3FD10511F4DC
:1008200061E0F5CFE12FF0E0E353FB4FE491E330DB
:1008300031F140F4E130B1F0E230E1F0C038D105FF
:100840007CF7E4CFE73029F1E83059F1E430B1F733
:1008500080918000806280938000D0938B00C09351
:100860008A0004C084B5806884BDC7BDDF91CF9184
:100870001F91089584B5806284BDC8BDF7CF809173
:100880008000806880938000D0938900C0938800A6
:10089000EDCF8091B00080688093B000C093B3002A
:1008A000E5CF8091B00080628093B000C093B40027
:1008B000DDCF8E50806480937C0080917A008064CC
:1008C00080937A0080917A0086FDFCCF8091780039
:1008D0009091790008958091F8078F7149F584E12E
:1008E0000E945904BC01990F880B990B0E94341B7C
:1008F00026EE3FE34EEC50E40E94981B0E94031B3F
:100900009B017093EF076093EE07672BB9F084E0CB
:100910008093ED07E0EFF7E080E0419151912417DB
:10092000350718F48093ED0708958F5F8430A9F799
:100930008091F8078F5F8093F80708958FEF809379
:10094000ED07F6CF3FB7F89480912A0590912B05DB
:10095000A0912C05B0912D0526B5A89B05C02F3F71
:1009600019F00196A11DB11D3FBFBA2FA92F982FD5
:100970008827BC01CD01620F711D811D911D42E0D0
:10098000660F771F881F991F4A95D1F708958F9298
:100990009F92AF92BF92CF92DF92EF92FF924B0164
:1009A0005C010E94A2046B017C010E94A2046C19EC
:1009B0007D098E099F09683E734081059105A8F362
:1009C00021E0821A9108A108B10888EEC80E83E0E0
:1009D000D81EE11CF11C81149104A104B10429F773
:1009E000FF90EF90DF90CF90BF90AF909F908F904F
:1009F0000895DC01ED91FC910190F081E02D0994C6
:100A0000EF92FF920F931F93CF93DF938C017B01A3
:100A1000D0E0C0E0F701EC0FFD1F6491662361F0A8
:100A2000D801ED91FC910190F081E02DC80109956C
:100A3000892B11F02196EECFCE01DF91CF911F913E
:100A40000F91FF90EF900895AF92BF92CF92DF92F7
:100A5000EF92FF920F931F93CF93DF936C017B0173
:100A60008B01040F151FEB015E01AE18BF08C01704
:100A7000D10759F06991D601ED91FC910190F08177
:100A8000E02DC6010995892B79F7C501DF91CF913A
:100A90001F910F91FF90EF90DF90CF90BF90AF909C
:100AA0000895FC01538D448D252F30E0842F90E074
:100AB000821B930B541710F0CF9608950197089559
:100AC000FC01918D828D981761F0A28DAE0FBF2F22
:100AD000B11D5D968C91928D9F5F9F73928F90E078
:100AE00008958FEF9FEF0895FC01918D828D9817E7
:100AF00031F0828DE80FF11D858D90E008958FEF24
:100B00009FEF0895FC01918D228D892F90E0805CEC
:100B10009F4F821B91098F739927089587E397E070
:100B20000E94820521E0892B09F420E0822F08959C
:100B300080E090E0892B29F00E948E0581110C94B1
:100B400000000895FC01A48DA80FB92FB11DA35A70
:100B5000BF4F2C91848D90E001968F739927848FDD
:100B6000A689B7892C93A089B1898C918370806400
:100B70008C93938D848D981306C00288F389E02DA1
:100B800080818F7D80830895EF92FF920F931F9352
:100B9000CF93DF93EC0181E0888F9B8D8C8D981330
:100BA0001AC0E889F989808185FF15C09FB7F8943C
:100BB000EE89FF896083E889F98980818370806488
:100BC00080839FBF81E090E0DF91CF911F910F91D3
:100BD000FF90EF900895F62E0B8D10E00F5F1F4FE2
:100BE0000F731127E02E8C8D8E110CC00FB607FCF1
:100BF000FACFE889F989808185FFF5CFCE010E947F
:100C0000A205F1CFEB8DEC0FFD2FF11DE35AFF4F45
:100C1000F0829FB7F8940B8FEA89FB89808180620C
:100C2000CFCFCF93DF93EC01888D8823B9F0AA89C9
:100C3000BB89E889F9898C9185FD03C0808186FD97
:100C40000DC00FB607FCF7CF8C9185FFF2CF8081E6
:100C500085FFEDCFCE010E94A205E9CFDF91CF91B4
:100C60000895FC01178A158A14A213A2108E1092FF
:100C70002E0510922F05109232051092B40008959F
:100C80000F931F93CF93DF93EC018B010E943106EA
:100C90001E870D871B8A1A8A81E0898389E08E8BE3
:100CA000198E1B8E1D8EDF91CF911F910F9108958C
:100CB000E09102088E2F90E0880F991FE0910008C4
:100CC000F0910108E80FF91F859194918F3F9807E3
:100CD00019F41092F9070895909305089927880F41
:100CE000991FE0910308F0910408E80FF91F65913E
:100CF000749189EF97E00E944006809102088F5F0F
:100D00008093020808954F925F927F928F929F92F4
:100D1000AF92BF92CF92DF92EF92FF920F931F9309
:100D2000CF93DF93EC01F901E490319684910E2C7E
:100D3000000CFF08062F062E000C110BF801EE0D1B
:100D4000FF1D1E161F060CF0E1C040330CF0DEC084
:100D5000A82FA42E042E000CBB086501C80ED11CC0
:100D600087FDDA941C141D040CF0D0C02E5F3F4F99
:100D7000670177E0C70ED11CD7FE04C067019EE073
:100D8000C90ED11C93E0D594C7949A95E1F747FF1B
:100D90000AC0A42FA80FCA9CC001CB9C900D11249F
:100DA000281B390B40E08A2F0A2E000C990B840F68
:100DB000911D47FD9A95C19714F0A0E3A41BF8A0DC
:100DC000E535F10514F0E4E5F0E09E2FCC85C4276D
:100DD000542F577081E001C0880F5A95EAF7459566
:100DE00045954595F80174E54702E00DF11D112484
:100DF000AF01495C5A4FD0E04A2EAA0F5508EE24A5
:100E0000E394DD24D41515040CF080C0F90174912D
:100E1000F1E0FF1219C0A62E8A01F901B0E8BB2E3D
:100E2000A91608F052C09B2C972221F0D8019C9063
:100E3000982A9C92B69421F431967491A0E8BA2E27
:100E4000A3940F5F1F4FECCFF1101BC0882E80942E
:100E5000A62E8A01F901B0E8BB2EA91608F035C00C
:100E60009B2C972221F0D8019C9098209C92B694BC
:100E700021F431967491A0E8BA2EA3940F5F1F4F0E
:100E8000ECCFB3E0FB122AC0882E8094962E8A0104
:100E9000F901B0E8AB2E9916B8F4BA2CB72241F09C
:100EA000D801BC907C2E792470FE0CC0B82ABC926C
:100EB000A69421F431967491A0E8AA2E93940F5F22
:100EC0001F4FE9CFB820F3CFCE25880F19F44C5A25
:100ED0005F4F81E0DF5F2C0D3D1D94CFA62E8A0170
:100EE000F901B0E8BB2EA91680F79B2C972221F0C0
:100EF000D8019C9098269C92B69421F431967491D6
:100F0000A0E8BA2EA3940F5F1F4FEDCFDF91CF91D2
:100F10001F910F91FF90EF90DF90CF90BF90AF9017
:100F20009F908F907F905F904F900895DC01643583
:100F300070F5403360F590968C919097E62F062ED1
:100F4000000CFF0B242F25952595259594E5290266
:100F5000E00DF11D1124E95CFA4F2081342F377028
:100F60008230B1F4822F90E0032E02C095958795D0
:100F70000A94E2F780958170811114C081E090E0BD
:100F800001C0880F3A95EAF78095822380830895FF
:100F9000833091F71C968C91817064276095617005
:100FA0008613ECCF81E090E001C0880F3A95EAF714
:100FB000822BECCFAF92BF92CF92DF92EF92FF9253
:100FC0000F931F93CF93DF93182F062FC0E0D3E02A
:100FD0008AEFD82E9EEFE92E842F8470C82E842F9E
:100FE0008270B82E842F8870A82E4170F42ECF5FA7
:100FF0008C2F880F8F5FE80ECC2081F0402F4D0F93
:10100000612F6C0F82E298E00E949607402F4C0FF0
:101010006D2F610F82E298E00E949607BB2081F05D
:10102000402F4D1B612F6C0F82E298E00E949607C3
:10103000402F4C1B6D2F610F82E298E00E949607B3
:10104000AA2081F0402F4C0F612F6D1B82E298E0A7
:101050000E949607402F4D0F612F6C1B82E298E093
:101060000E949607FF2081F0402F4C1B612F6D1BC3
:1010700082E298E00E949607402F4D1B612F6C1B67
:1010800082E298E00E949607CD173CF4E7FCAFCFD0
:10109000D150D394D394ED0CAACFDF91CF911F916F
:1010A0000F91FF90EF90DF90CF90BF90AF90089599
:1010B000EF92FF920F931F93CF93DF938C01F62E45
:1010C000D42FE22EC0E0CE1544F46F2D6C0F4D2FBF
:1010D000C8010E949607CF5FF6CFDF91CF911F9195
:1010E0000F91FF90EF900895DF92EF92FF920F9390
:1010F0001F93CF93DF937C01D62FD22EC42F002EC7
:10110000000C110B040F111D47FD1A958C2F0C2E8E
:10111000000C990B8017910744F42D2D4C2F6D2F47
:10112000C7010E945808CF5FF1CFDF91CF911F9187
:101130000F91FF90EF90DF9008954F925F926F9222
:101140007F928F929F92AF92BF92CF92DF92EF9257
:10115000FF920F931F93CF93DF93EC016A3049F412
:1011600028859D818A85299F800D11248A8719866B
:10117000A6C06D3009F4A3C0898483E588150CF4FA
:1011800087C0DA848FE28D150CF482C018852C811B
:101190002150330B129FC001139F900D1124880D15
:1011A000911D87FC9A95181619060CF071C02D81B7
:1011B0008D2D0D2C000C990B129F800D911D11246B
:1011C000181619060CF064C078A0C82C912CE62ED5
:1011D000F12C292D092C000C330B8C8190E0281761
:1011E00039070CF054C00197E0E02817390771F077
:1011F000E89EF001E99EF00DF89EF00D11242E0FEF
:101200003F1FEE8DFF8DE20FF31FE4915D2C612CEB
:10121000492C480C2D81862D062C000C990B281783
:10122000190691F18CF1AE2EB12CE0FF16C01130F1
:1012300061F4462D4D0D642DCE010E949607F501F7
:10124000F595E7956394510EE5CF012F212F452D9C
:101250006C2DCE010E947408F2CF89A198A1891744
:1012600071F388A3113041F4462D4D0D642DCE014C
:101270000E94960778A2E3CF012F212F452D6C2DD8
:10128000CE010E947408F6CF9394C10EA2CF78A22B
:1012900028853C818985239F800D112489879F8122
:1012A000992369F0082E000C990B44E550E0239F28
:1012B000401951091124481759070CF452CF81E005
:1012C00090E0DF91CF911F910F91FF90EF90DF9011
:1012D000CF90BF90AF909F908F907F906F905F90D6
:1012E0004F900895EF92FF920F931F93CF93DF9348
:1012F0008C01D62FF42EE22EC0E0CE1544F44F2DF3
:101300004C0F6D2FC8010E949607CF5FF6CFDF917B
:10131000CF911F910F91FF90EF9008958F929F9220
:10132000AF92BF92CF92DF92EF92FF920F931F93F3
:10133000CF93DF93082FB62E942EA22E83E0F82EA3
:10134000D0E0C3E09AEFE92E1EEFCC24C394C20E86
:10135000DF5F1F0D2C2F220F4B2D4C1B8A2C8F0C67
:10136000DB2CDD1A81E02C0D602F981218C06D0F58
:1013700082E298E00E947209282D4D2D6C2F600F9B
:1013800082E298E00E947209DC179CF417FD04C009
:10139000C150E394E3941E0DF394F394D9CF6D1BE5
:1013A00082E298E00E947209282D4D2D602F6C1B5F
:1013B000E7CFDF91CF911F910F91FF90EF90DF90DA
:1013C000CF90BF90AF909F908F900895EDE8F1E09F
:1013D00090E080E051E05083DF01A858BC4F5C935F
:1013E00041E0009721F08731910509F040E0DF01ED
:1013F00021E030E058964C9358972F5F3F4F589616
:1014000025323105B9F7019631968831910519F7E2
:101410000895EDE1F5E083E190E09183808313820C
:101420001282E9E8F1E0118210821382128208959B
:10143000089590E080E00895CF93DF93EC01BC0124
:10144000990F880B990B0E94711240912A082091E4
:101450002608429FA0011124489F9001499F300D0A
:10146000589F300D1124369527958AE2821B809370
:101470002B08BE0182E298E0DF91CF910C94000529
:10148000FB0101900020E9F73197AF01461B570B94
:10149000DC01ED91FC910280F381E02D0994CF9362
:1014A000DF93BC0182E298E00E940005EC016BE250
:1014B00071E082E298E00E94400A8C0F9D1FDF914C
:1014C000CF910895E7E3F5E088EF91E0DF019C011B
:1014D0001D9221503040E1F710922B0810922C08F9
:1014E00063E774E082E298E00E9400050E943E03F8
:1014F0008CB583608CBD8DB58E7F8DBD8EE291E005
:10150000EEEFFFE30995109228088EE494E00E9424
:101510004F0A0E943E030E94B5038091E907813083
:1015200039F062E370E080E090E00E94C704F3CFFE
:1015300008958F929F92AF92BF92EF92FF920F9376
:101540001F93CF93DF93CDB7DEB7A1970FB6F89473
:10155000DEBF0FBECDBF7C01FA01CB0119A2223044
:1015600008F42AE08E010F5D1F4F822E912CB12CC2
:10157000A12CBF01A50194010E94D21AF901CA0150
:101580006A300CF5605DD8016E938D01232B242BFE
:10159000252B79F790E080E0109721F0BD01C7017D
:1015A0000E94400AA1960FB6F894DEBF0FBECDBFD1
:1015B000DF91CF911F910F91FF90EF90BF90AF906F
:1015C0009F908F900895695CDECFCF92DF92EF926B
:1015D000FF920F931F93CF93DF936B01770FEE086A
:1015E000FF08F7FE1BC0EC016DE20E94F9048C01BC
:1015F00044275527BA014C195D096E097F092AE075
:10160000CE010E94990A800F911FDF91CF911F9107
:101610000F91FF90EF90DF90CF9008952AE0B701EF
:10162000A601DF91CF911F910F91FF90EF90DF9076
:10163000CF900C94990A4F925F926F927F928F9203
:101640009F92AF92BF92CF92DF92EF92FF920F9351
:101650001F93CF93DF9300D000D01F92CDB7DEB79A
:101660004091540850915508609156087091570860
:101670002FB7F8948091330590913405A0913505EA
:10168000B09136052FBF481B590B6A0B7B0B80911D
:10169000530890E0B0E0A0E000914F08109150088E
:1016A000209151083091520884179507A607B70773
:1016B00008F0CEC0011511052105310509F4C8C097
:1016C0002FB7F8948091330590913405A09135059A
:1016D000B09136052FBF20915308820F911DA11D97
:1016E000B11D8093540890935508A0935608B09369
:1016F00057088091450890914608A0914708B091FD
:1017000048080196A11DB11D809345089093460895
:10171000A0934708B093480810924F0810925008C1
:1017200010925108109252080E94A20460934B0834
:1017300070934C0880934D0890934E088091D50784
:101740009091D6072FE0289FA001299F500D1124CA
:101750005A83498385E10E945904A981BA818A0F7D
:101760009B1FB4E096958795BA95E1F79093D607BD
:101770008093D5072091D407222309F448C06091B3
:10178000D807262F30E050E040E029833A834B838E
:101790005C83C090D907D12CF12CE12C4091DC075F
:1017A0005091DD074A01B12CA12C2091DA0730912C
:1017B000DB072901712C612C8217930728F09C010B
:1017C0004817590708F49A0150E040E024193509F8
:1017D0004609570969817A818B819C816C197D0941
:1017E0008E099F090E942D1CA50194012419350919
:1017F000460957090E94A01AC20ED31EE41EF51E08
:10180000C092D7076C2D70E085E00E94FC030E9417
:10181000B5038091F0079091F107892B11F00E9498
:101820006B0481E00F900F900F900F900F90DF915D
:10183000CF911F910F91FF90EF90DF90CF90BF90CD
:10184000AF909F908F907F906F905F904F90089592
:10185000012B022B032B09F06EC18091EB07815005
:101860008E3F28F58091EA07813009F58091FE07C7
:101870008F5F6091FF0787FD09C0082E000C990B50
:1018800070E06F5F7F4F0E94491C682F6093FE07D6
:1018900087E494E0909359088093580888E48093F3
:1018A0005A0864E374E089EF97E00E944006809153
:1018B000EB0781508E3F70F48091E907813009F089
:1018C00022C38AE394E0909359088093580888E4EF
:1018D00080935A088091F907882331F08091FA07A4
:1018E000811102C00E9458068091FA07882309F4EA
:1018F0003EC080910E0881113AC0809106089091F7
:101900000708E0910B08F0910C08EE0FFF1FE80F9D
:10191000F91F259134912115310509F463C1A901FD
:101920005695479556954795842F20FD06C18F7390
:1019300080930D088091FD07839F802D1124809353
:101940000E0810921E0810921D0810921C0881E0CB
:1019500080931008809332051092110880910B0833
:1019600090910C08019690930C0880930B0880913D
:101970001008882341F080910E0881114FC189EF32
:1019800097E00E94310680915A08882309F489C0A3
:101990008C3008F02DC23CE0381B3983FF24F394CF
:1019A000F0922A08109242081092430840912708AA
:1019B0004D831981141B042F0D5F4DE2410F2EE45E
:1019C00063E082E298E00E9474085D8154505D8378
:1019D000105D252F41E0612F80E50E948E092D8149
:1019E00042E0612F83E00E948E09F0924208F0925B
:1019F0004308009127081981101B8DE2F82EF10E83
:101A00002EE44F2D63E082E298E00E94580883E0C4
:101A1000800F8F0D8D83482F41502EE463E082E2CA
:101A200098E00E9458080350105D202F412F60E07D
:101A300082E298E00E947209202F412F63E582E242
:101A400098E00E94720941E0612F83E00E94DA076A
:101A500042E0612F80E50E94DA079D8194509D83CA
:101A600044E0692F80E50E94DA0748E06D8183E059
:101A70000E94DA0784E080932B0880912708A981CF
:101A8000A81BA15DA0932C0860915808709159087B
:101A900082E298E00E94000580915A08815080936C
:101AA0005A088091F0079091F107892BE1F0B1E09D
:101AB000B0934208109243089091260885E5891B4F
:101AC00080932B0810922C086091ED07613009F487
:101AD000FEC108F48FC18091EC07653008F00EC29A
:101AE0006B5F811106C20E943E038091280881111C
:101AF0000EC0E7E3F5E088EF91E0DF019C011D9265
:101B000021503040E1F710922B0810922C080E94CF
:101B1000A20460934F0870935008809351089093EB
:101B2000520820914B0830914C08621B730B709344
:101B30004A086093490880E075CEC901E6E09695B1
:101B40008795EA95E1F78F71932F969596959695DF
:101B500090514F70423099F1D0F4442309F43CC0C5
:101B60004130B9F1E0910B08F0910C083196F093F7
:101B70000C08E0930B08CF01880F991FE09106082D
:101B8000F0910708E80FF91F25913491C8CE433032
:101B900061F0443039F72091FD07289F802D1124F2
:101BA0008093160890931708DDCF2091FD07289F9A
:101BB000802D11248093140890931508D3CF209181
:101BC000FD07289F802D11248093120890931308FD
:101BD000C9CF0E949C02C6CF8B3008F08AE0809368
:101BE0000F08C0CF20910A08211112C01092FA07E5
:101BF0008091F907811105C089EF97E00E943106B5
:101C0000B6CE0E94580680910B0890910C08B4CF74
:101C100010920C0810920B08FC01B6CF81508093F3
:101C20000E0880911E08811142C020911C0830913D
:101C30001D082F5F3F4FC901880F991FE0911808B9
:101C4000F0911908E80FF91F85919491482F47707A
:101C500040931F08492F4695469540932008AC01B4
:101C600064E0569547956A95E1F74F739091FD07AB
:101C7000499F402D112440931E0883FB882780F93B
:101C80008093310530931D0820931C0880911A0819
:101C900090E02817390758F020911B08222309F4F7
:101CA0009FC0821B910990931D0880931C0880910E
:101CB0001E08815080931E088091110831E0380F72
:101CC0003093110840910D0820912008240F809135
:101CD0000508280F2093FB0760911408662371F014
:101CE00070E0832F032E000C990B0E94491C8091F9
:101CF0001508869F200D11242093FB078091FB0778
:101D000090E0849664E270E00E94491C8093FB0797
:101D100020910F082093FC0760911208662381F040
:101D2000062E000C770B832F032E000C990B0E94BC
:101D3000491C80911308869F200D11242093FC07D5
:101D4000609116086623A1F0832F330F990B70E082
:101D50000E94491CCB0162E070E00E94491C209166
:101D600017089091FC07289F900D11249093FC0771
:101D70004F3309F43AC08091FC078A300CF089E0B7
:101D800087FD80E08093FC07F894E091FB07F0E08A
:101D9000E05FFB4FE491E093300520912108309102
:101DA000FC0732039001112440911F084203C00137
:101DB000439F900D11242091FE0702C0880F991FA8
:101DC0002A95E2F797FF02C081589F4F880F892F0D
:101DD000881F990B80932F0580932E057894D3CD7F
:101DE00089EF97E00E94310662CF1092FC07CCCFBA
:101DF0001982D4CD89EF97E00E9431061092FA073C
:101E000021E020932A08EEE8F2E0E491EF5FE0930E
:101E10002608EFE8F2E0E491EF5FE093270880E91D
:101E200092E090934108809340081092F10710923D
:101E3000F0071092280838EA39830E941B0B882388
:101E4000E1F360E872E082E298E00E9400054091D0
:101E5000EE075091EF0770E060E02AE082E298E040
:101E60000E94990A6BE672E082E298E00E94000507
:101E7000698162956F7070E082E298E00E94E50AE5
:101E800060E672E082E298E00E9400058091E90736
:101E9000813009F428CE4981415049834111CDCF89
:101EA00070E060E085E00E94FC0383B7817F84607E
:101EB00083BF83B7816083BF83B7816083BF889509
:101EC00083B78E7F83BF83B78E7F83BFB6CF80916A
:101ED000450890914608A0914708B09148088F7036
:101EE0009927AA27BB2767E00897A105B10508F045
:101EF00068E782E298E00E94F904F5CD882309F4AE
:101F0000F2CD6FE2F6CF893209F0E4CC0E94620A8A
:101F1000E1CCCF92DF92EF92FF920F931F93CF937A
:101F2000DF9381E080932A081092290810922808F4
:101F30001092EC078093420880934308CCECD1E0E8
:101F40001CE00E941B0B8823E1F3FE0104910111A8
:101F50000091270820EF31E040E060E082E298E065
:101F60000E9483064CE0400F2AED30E060E082E200
:101F700098E00E94830610922B0810932C086CECBA
:101F800071E082E298E00E94000580912608982F77
:101F9000990F990F891B8D5A80932B0880912708E0
:101FA000982F990F990F891B835D80932C0880913E
:101FB000450884FF6AC08CEE91E00E944F0A809130
:101FC0002608982F990F990F891B8D5A80932B08FB
:101FD00080912C088F5F80932C088091FE078823C6
:101FE00009F456C084EE91E00E944F0A80912608C1
:101FF000982F990F990F891B8D5A80932B088091E8
:102000002C088F5F80932C088CED91E00E944F0A82
:102010008091EA078130C1F48091FE078F5F609163
:10202000FF0787FD09C0082E000C990B70E06F5F59
:102030007F4F0E94491C682F6093FE0764E374E0A1
:1020400089EF97E00E9440068091E907813019F1FD
:1020500080914408482F50E070E060E0C09045084F
:10206000D0904608E0904708F0904808C416D5067E
:10207000E606F70610F08F3F71F48091EB07813090
:1020800009F05FCF0E94620A5CCF88EE91E095CFA5
:1020900080EE91E0A9CF8FEF8093440889EF97E01D
:1020A0000E9431061092FA0762ED70E089EF97E026
:1020B0000E94400681E08093EC07DF91CF911F9151
:1020C0000F91FF90EF90DF90CF9008952F923F9265
:1020D0004F925F926F927F928F929F92AF92BF9238
:1020E000CF92DF92EF92FF920F931F93CF93DF93E4
:1020F00000D000D000D0CDB7DEB701E611E089E313
:1021000091E09E838D83312C212C28E2C22ED12C8C
:10211000E12CF12C8091090190910A01A0910B0111
:10212000B0910C0189839A83AB83BC8380910301B6
:102130009091040128163906CCF189819A81AB81EE
:10214000BC81F80180839183A283B383AD81BE817A
:1021500011961C921E9213961C921E921297FFEFDC
:102160002F1A3F0A0C5F1F4F8D819E8104969E831C
:102170008D839AE029163104C9F626960FB6F89495
:10218000DEBF0FBECDBFDF91CF911F910F91FF90AA
:10219000EF90DF90CF90BF90AF909F908F907F9007
:1021A0006F905F904F903F902F9008950E94481A33
:1021B0004B015C010E94481A2B013C01C501B4018E
:1021C00022E130E040E050E00E94A01A665F7F4FBD
:1021D0008F4F9F4FF80171836083C301B20124E0E8
:1021E00030E040E050E00E94A01A665F7F4F8F4FC2
:1021F0009F4FD80113967C936E9312970E94481AB2
:10220000A70196010E94A01A65317105810591050B
:10221000BCF4AA24A394B12C0E94481AA7019601E9
:102220000E94A01A65317105810591056CF481E069
:1022300090E0ED81FE81B182A082938382838FCF73
:10224000AA24AA94BA2CE8CF8FEF9FEFF2CF8F92F7
:102250009F92AF92BF92CF92DF92EF92FF92C09087
:10226000EE07D090EF07C094D094F12CE12C0E949F
:10227000A2044B015C010E94A204A50194012095D7
:1022800030954095509560957095809590950E94F9
:102290002D1C9B01AC01C701B6010E942D1C4B01F6
:1022A0005C01C090D507D090D607F12CE12C0E949C
:1022B000A2046C0D7D1D8E1D9F1D680D791D8A1D4C
:1022C0009B1D611571058105910511F00E94971AFA
:1022D00010922605109228051092270583E090E0C1
:1022E000909302018093010181E090E090930401BA
:1022F000809303010E94090A0E94E6090E94661069
:1023000062ED70E089EF97E0FF90EF90DF90CF9063
:10231000BF90AF909F908F900C9440061F920F92A9
:102320000FB60F9211242F933F938F939F93AF93E8
:10233000BF938091330590913405A0913505B091FC
:1023400036053091290523E0230F2D3758F50196E6
:10235000A11DB11D20932905809333059093340569
:10236000A0933505B093360580912A0590912B05F1
:10237000A0912C05B0912D050196A11DB11D809352
:102380002A0590932B05A0932C05B0932D05BF91A2
:10239000AF919F918F913F912F910F900FBE0F9012
:1023A0001F90189526E8230F0296A11DB11DD2CFCC
:1023B0001F920F920FB60F9211242F933F934F93BA
:1023C0005F936F937F938F939F93AF93BF93EF939D
:1023D000FF9387E397E00E94A205FF91EF91BF91E1
:1023E000AF919F918F917F916F915F914F913F91AD
:1023F0002F910F900FBE0F901F9018951F920F9264
:102400000FB60F9211242F938F939F93EF93FF9307
:10241000E0914707F09148078081E0914D07F091E6
:102420004E0782FD1BC09081809150078F5F8F7394
:1024300020915107821741F0E0915007F0E0E95CEC
:10244000F84F958F80935007FF91EF919F918F9157
:102450002F910F900FBE0F901F9018958081F4CF91
:102460001F920F920FB60F9211242F936F937F93A9
:102470008F939F9360912F05662349F180913601D8
:102480008F5F8093360190913005891700F120917C
:10249000320581E028272093320510923601809181
:1024A0003105882369F08091000193E4899F802D94
:1024B0001124895B809300010E943D1C90932E059E
:1024C00080912E05211101C080E08093B4009F917E
:1024D0008F917F916F912F910F900FBE0F901F9052
:1024E0001895FB0105900020E9F7609570956E0F37
:1024F0007F1FCB010895E7E3F7E01382128288EE95
:1025000093E0A0E0B0E084839583A683B78381E164
:1025100091E09183808385EC90E09587848784ECBB
:1025200090E09787868780EC90E0918B808B81ECA0
:1025300090E0938B828B82EC90E0958B848B86EC81
:1025400090E0978B868B118E128E138E148E1092C4
:1025500025081092240883E291E090932308809349
:1025600022080895CF93DF93CDB7DEB728970FB633
:10257000F894DEBF0FBECDBF789484B5826084BD71
:1025800084B5816084BD85B5826085BD85B5816077
:1025900085BD80916E00816080936E0010928100F5
:1025A00080918100826080938100809181008160B0
:1025B0008093810080918000816080938000809171
:1025C000B10084608093B1008091B00081608093FD
:1025D000B00080917A00846080937A0080917A00C4
:1025E000826080937A0080917A00816080937A0083
:1025F00080917A00806880937A001092C100E09107
:102600004707F091480782E08083E0914307F0910B
:1026100044071082E0914507F09146078FEC8083D4
:1026200010924F07E0914B07F0914C0786E08083B2
:10263000E0914907F0914A07808180618083E091B1
:102640004907F0914A07808188608083E0914907BB
:10265000F0914A07808180688083E0914907F0917A
:102660004A0780818F7D808382E38093530881E0D5
:1026700090E0A0E0B0E080934F0890935008A093C2
:102680005108B09352088FEF80934408E0E8F7E7D1
:10269000259134912130304C09F042C2E6E9F7E748
:1026A000E491E0932D08E7E9F7E7E491E093D80798
:1026B000E8E9F7E7E491E093D907E9E9F7E78591DD
:1026C00094919093DB078093DA07EBE9F7E7859124
:1026D00094919093DD078093DC0787E08093FF0758
:1026E000EEE9F7E7E491E093FE07EFE9F7E7E4911D
:1026F000E0934408E0EAF7E7859194919093F1071D
:102700008093F007E2EAF7E7859194919093F307BD
:102710008093F207E4EAF7E7859194919093F507A7
:102720008093F407E6EAF7E7859194919093F70791
:102730008093F60751E05093D4076FEF70E085E087
:102740000E94FC0388E08093DE0789E08093DF0726
:1027500087E08093E00786E08093E10764E0609380
:10276000E20782E08093E30781E18093E4070E941F
:10277000B5038CE39FE09093EF078093EE0784E02E
:102780008093ED0791E09093F8078BE080933008F9
:102790008DE080932F0880E1809331088EE0809354
:1027A00033088FE08093320890932A089093420870
:1027B0001092430890932908EEE8F2E0E491EF5F6D
:1027C000E0932608EFE8F2E0E491EF5FE09327085A
:1027D00080E992E09093410880934008AFB6A982C7
:1027E000F89480913701811127C0EFEAF4E08491D9
:1027F000E3ECF4E09491E82FF0E0EE0FFF1FE254D9
:10280000FF4FA591B491EC91E92321F461E08AE0B6
:102810000E94F10261E08AE00E9479038CB5806138
:102820008CBD8CB580648CBD61E08DE00E94790325
:1028300061E08BE00E947903809137018F5F809384
:102840003701A980AFBE8CB58F7D8CBD8CB58C7FD8
:1028500081608CBD8DB581608DBD8CB58C608CBD6B
:1028600061E0809130080E94790361E080912F0837
:102870000E94790361E0809131080E947903809180
:10288000330818161CF461E00E9479038091320825
:1028900018161CF461E00E94790380913308181621
:1028A00074F460E00E94F1026AE070E080E090E081
:1028B0000E94C70461E0809133080E94F102809178
:1028C0002F08082E000C990BFC01EB55FB4FE491EF
:1028D000F0E0EE0FFF1FE853FF4F25913491309346
:1028E000370820933608FC01E754FB4FE491E0934E
:1028F0003D0880913008082E000C990BFC01EB5527
:10290000FB4FE491F0E0EE0FFF1FE853FF4F2591DE
:1029100034913093350820933408FC01E754FB4F81
:10292000E491E0933C0880913208082E000C990B4A
:10293000FC01EB55FB4FE491F0E0EE0FFF1FE85375
:10294000FF4F259134913093390820933808FC01CA
:10295000E754FB4FE491E0933E0880913108082E44
:10296000000C990BFC01EB55FB4FE491F0E0EE0FEE
:10297000FF1FE853FF4F2591349130933B0820937C
:102980003A08FC01E754FB4FE491E0933F0881E2F1
:102990000E941F0384E10E941F0380912D0887FF7E
:1029A00003C08FE780932D0880912D0880680E94D6
:1029B0001F0380E20E941F038CE00E941F030E94FD
:1029C0003E0381E08093FD0784E08093210880E747
:1029D00090E0909309088093080880E00E949C0290
:1029E00061E070E083E00E94FC038091B100887F89
:1029F00081608093B100F894109280001092810061
:102A0000109285001092840088E191E090938900F3
:102A100080938800809181008860809381008091FC
:102A2000810081608093810080916F00826080933B
:102A30006F0078948091F0079091F107892B11F045
:102A40000E946B048091EA07813009F496C080915E
:102A5000ED07882309F491C064E770E089EF97E0FF
:102A60000E9440061092EC078091440881110E9458
:102A7000890F0E9427110E941B0B182F882309F42D
:102A8000A8C38091EB07813039F48091440881110B
:102A90000E94890F0E942711809128058111AAC2E6
:102AA000809127058111A6C29091EA07913039F4EF
:102AB0008091260589278093260510922505B090E0
:102AC0002605B11028C48091E707813009F458C069
:102AD0008091E507813009F05BC180911D059091DF
:102AE0001E0558E1589FF001599FF00D1124E3573E
:102AF000FE4F80911F0590912005E80FF91F8081FE
:102B0000813039F08091890190918A01019709F40F
:102B10005CC08FEF9FEF90938A018093890151C031
:102B20009CE390932D081092D8078093D90780E2F8
:102B300093E09093DB078093DA0784ED93E0909322
:102B4000DD078093DC0787E08093FF078093FE0713
:102B50008CEA9DE09093F1078093F0078EED9DE065
:102B60009093F3078093F20784E79EE09093F50734
:102B70008093F4078CE39FE0D9CD1092FE0772CFCB
:102B800080911D0590911E0528E1289FF001299F45
:102B9000F00D1124E357FE4F80911F059091200501
:102BA000E80FF91F8081813031F080918901909187
:102BB0008A01019651F041E050E050938A01409320
:102BC000890110928C0110928B018FB7F89440907C
:102BD00033055090340560903505709036058FBFF1
:102BE0008091210590912205A0912305B0912405A3
:102BF000A3019201281B390B4A0B5B0BDA01C901B7
:102C0000883C9105A105B10508F485C320911D05F7
:102C100030911E0580911F059091200548E1429F4B
:102C2000F001439FF00D1124E357FE4FE80FF91F09
:102C30000081011102C042E040834091890150911E
:102C40008A014130510509F0F7C02532310534F4CD
:102C50002F5F3F4F30931E0520931D0520918B0160
:102C600030918C012130310509F0F1C08731910597
:102C70002CF401969093200580931F05E0900301AA
:102C8000F090040120901D0530901E05E0911F0575
:102C9000F0912005FA83E983E9E3F1E091E6C92E9A
:102CA00091E0D92EDE82CD82912C812C8E149F044E
:102CB0000CF0D7C0AD81BE816D917C9111972081C0
:102CC000318112964D915C91DB01A20FB31F88E117
:102CD000A82EAA9EC001AB9E900D112498878F83C9
:102CE00083579E4F840F951FDC018C91813029F40E
:102CF0003195219531093183208322813381B8E1D7
:102D0000B69FC001B79F900D112483579E4F840F2B
:102D1000951F820F931FDC018C91813029F431952E
:102D2000219531093383228380819181680F791F36
:102D3000AD81BE8111967C936E9382819381840FC5
:102D4000951F13969C938E9312976215730531F419
:102D500029813A818217930709F4B12E38E1369F11
:102D6000A001379F500D112443575E4F480F591F44
:102D7000DA018C91823009F4B12EBFEF8B1A9B0AD5
:102D800034962D813E812C5F3F4F3E832D838ECF25
:102D90008091E807813039F580911D0590911E05DD
:102DA000A8E1A89FF001A99FF00D1124E357FE4F61
:102DB00080911F0590912005E80FF91F80818130D7
:102DC00039F080918B0190918C01019609F4FDCE30
:102DD000E1E0F0E0F0938C01E0938B0110928A0126
:102DE00010928901F2CE8091E607813009F0EDCE94
:102DF00080911D0590911E0528E1A22EA89EF0014C
:102E0000A99EF00D1124E357FE4F80911F0590916C
:102E10002005E80FF91F8081813039F080918B0106
:102E200090918C01019709F4D0CE2FEF3FEF3093B2
:102E30008C0120938B01D2CF4F3F5F4F09F00ECF13
:102E4000121613060CF00ACF2150310903CF2F3F81
:102E50003F4F09F013CF181619060CF00FCF01974A
:102E600009CFB1100FC038E1329DF001339DF00D54
:102E70001124E357FE4F49815A81E40FF51F8081E9
:102E8000823059F50E94090A8DE891E0FC0130E09A
:102E900020E04081423009F410822F5F3F4F789646
:102EA00026323105B1F7019651E0853A950771F761
:102EB0006CE870E089EF97E00E9440068091010184
:102EC00090910201019790930201809301011816DD
:102ED00019061CF061E06093280580912805811196
:102EE00012C28091890190918A01892B39F48091D5
:102EF0008B0190918C01892B09F405C280911D05ED
:102F000090911E05A8E1A89FF001A99FF00D112442
:102F1000E357FE4F80911F0590912005E80FF91FA0
:102F20008081013009F4EFC1813009F0ECC164E324
:102F300074E089EF97E00E9440066DE871E09B0124
:102F4000F90190E080E04081423061F5B1E0B0836A
:102F50000196789686329105B1F72F5F3F4F45EA8B
:102F600051E04217530761F750E040E04E155F050E
:102F70000CF048C1D601ED91FC91B8E1BE9FC001B3
:102F8000BF9F900D112483579E4FD6011296ED914D
:102F9000FC91E80FF91F10824F5F5F4FB4E0CB0E3A
:102FA000D11CE4CF4111D4CFA3E0AA2EA082D0CF70
:102FB0000E94090A0E94E6095FEFE51AF50AF092FD
:102FC0000401E09203010330110534F40F5F1F4F39
:102FD00010930201009301010E94661062ED70E0FF
:102FE00089EF97E00E94400661E0609325056093B9
:102FF00026056CC18091E907813009F08CC10E94DF
:10300000271189C1823009F09FC128E830E0412FA3
:103010006B2D82E298E00E94830696C1F1E0F09366
:103020004208F093430800E328E040E06CE482E2C9
:1030300098E00E947408109242081092430842E0FF
:10304000F42E10E000E08091010190910201081738
:10305000190774F422E830E04F2D6DE482E298E025
:103060000E9483060F5F1F4F35E0A32EFA0CEBCFB3
:1030700021E020932A083DE430932B089091270803
:103080008EE2891B80932C08B40182E298E00E94B2
:10309000E50A80913801882309F46AC024EFF22EF2
:1030A000F80E8C3008F0F12C60E070E0CB010E944B
:1030B000711210912A0890912608199F102D112441
:1030C000189F102D112441E040932A084093420894
:1030D00040934308E090270882E0B82EBE0C92E0AF
:1030E000992E910EDD24DA94DF0CC12EC69408E2ED
:1030F0000C19292D4D2D602F82E298E00E9458086E
:1031000041E04E0D4D0D292D602F82E298E00E9486
:1031100058082B2D4D2D602F82E298E00E947209F5
:103120001F5F612F600F2B2D4D2D82E298E00E94D2
:1031300072091092420810924308009127080F5F0D
:1031400069E26C19212F4D2D82E298E00E947408EB
:1031500051E05093420850934308F0922C0890E0BD
:1031600080E00E941C0A80913801815080933801D0
:1031700010912605F090270511110AC080912505B0
:10318000811106C080912805811102C0FF2009F13C
:1031900010922C08109242081092430800912708C0
:1031A0000F5F24E540E060E082E298E00E9474084E
:1031B00061E0609342086093430883EB90E0F11074
:1031C00006C080912805882389F087EA90E00E9454
:1031D0001C0A80E090E0892B09F44DCC0E948E05FA
:1031E000882309F448CC0E94000045CC8091250535
:1031F000882319F08CE990E0EACF112351F384E998
:1032000090E0E5CF00E090E080E0FC01E357FE4F66
:1032100050E040E0A081A330F1F48230910544F009
:10322000DF011197AC91AA23A1F08731910519F024
:10323000A181AA2371F04230510544F0DF01589773
:10324000AC91AA2331F04532510529F0A08DA1118E
:1032500002C01082012F4F5F5F4F789646325105B2
:10326000C9F601968831910581F60111CBCF90E026
:1032700080E0FB0150E040E0A081A33019F4AA24D3
:10328000A394A082A081A13009F401964F5F5F4F03
:1032900078964632510581F76F5F7F4F26173707C3
:1032A00041F70091010110910201833A924074F0BC
:1032B0003AE0E316F10409F07BCE62ED70E089EFAD
:1032C00097E00E94400641E04093270580911D054C
:1032D00090911E05A8E1A89FF001A99FF00D11246F
:1032E000E357FE4F80911F0590912005E80FF91FCD
:1032F0008081813041F410928A01109289011092EC
:103300008C0110928B01409221055092220560920F
:1033100023057092240581E080934208809343083E
:10332000FDE8EF2EF1E0FF2E10E06701B12CD60191
:103330008C91813009F066CE02E022E0412F6B2DA6
:1033400082E298E00E947408B8E1CB0ED11CB394DD
:10335000B394ECE4BE12EBCF1E5FFFEFEF1AFF0A4F
:10336000103319F760911D0570911E0540911F05DE
:1033700050912005E8E1AE2EA69EF001A79EF00D2B
:103380001124E357FE4FE40FF51F81E09081911166
:1033900080E08093420880934308440F660F02E068
:1033A00022E082E298E00E94740821E02093420823
:1033B0002093430851E6E52E51E0F52ED12CC12C87
:1033C0008090030190900401C814D9040CF026CE1B
:1033D000D70112964C911297440F6C91660F02E040
:1033E00022E082E298E00E947408BFEFCB1ADB0A69
:1033F000E4E0EE0EF11CE4CF8F929F92AF92BF9269
:10340000CF92DF92EF92FF92CF93DF93EC0168812E
:1034100079818A819B81611571058105910521F46E
:1034200064E279ED8BE597E02DE133EF41E050E088
:103430000E94A01A49015A019B01AC01A7EAB1E41C
:103440000E94BF1A6B017C01ACEEB4EFA5019401A0
:103450000E94CD1AC60ED71EE81EF91EF7FE06C042
:1034600081E0C81AD108E10880E8F80AC882D98248
:10347000EA82FB82C701B6019F77DF91CF91FF906F
:10348000EF90DF90CF90BF90AF909F908F90089576
:103490008F929F92AF92BF92CF92DF92EF92FF9264
:1034A00060910501709106018091070190910801DA
:1034B000611571058105910521F464E279ED8BE5D3
:1034C00097E02DE133EF41E050E00E94A01A49015E
:1034D0005A019B01AC01A7EAB1E40E94BF1A6B013B
:1034E0007C01ACEEB4EFA50194010E94CD1AC60E8A
:1034F000D71EE81EF91EF7FE06C081E0C81AD108E3
:10350000E10880E8F80AC0920501D0920601E09235
:103510000701F0920801C701B6019F77FF90EF9075
:10352000DF90CF90BF90AF909F908F900895609361
:103530000501709306018093070190930801089597
:10354000052E97FB1EF400940E94B71A57FD07D072
:103550000E94D21A07FC03D04EF40C94B71A50956F
:103560004095309521953F4F4F4F5F4F089590956F
:103570008095709561957F4F8F4F9F4F08950E9462
:10358000F41AA59F900DB49F900DA49F800D911DDE
:1035900011240895B7FF0C94BF1A0E94BF1A821B12
:1035A000930B0895A1E21A2EAA1BBB1BFD010DC0AF
:1035B000AA1FBB1FEE1FFF1FA217B307E407F507E3
:1035C00020F0A21BB30BE40BF50B661F771F881FBF
:1035D000991F1A9469F760957095809590959B0155
:1035E000AC01BD01CF010895A29FB001B39FC001FE
:1035F000A39F700D811D1124911DB29F700D811D1F
:103600001124911D08950E94771B88F09F5798F010
:10361000B92F9927B751B0F0E1F0660F771F881FD7
:10362000991F1AF0BA95C9F714C0B13091F00E94F1
:10363000911BB1E008950C94911B672F782F882778
:10364000B85F39F0B93FCCF3869577956795B39518
:10365000D9F73EF490958095709561957F4F8F4F87
:103660009F4F0895E89409C097FB3EF4909580958C
:10367000709561957F4F8F4F9F4F9923A9F0F92F38
:1036800096E9BB279395F695879577956795B795B6
:10369000F111F8CFFAF4BB0F11F460FF1BC06F5F9C
:1036A0007F4F8F4F9F4F16C0882311F096E911C0AE
:1036B000772321F09EE8872F762F05C0662371F0CF
:1036C00096E8862F70E060E02AF09A95660F771FE3
:1036D000881FDAF7880F9695879597F9089557FD13
:1036E0009058440F551F59F05F3F71F04795880F70
:1036F00097FB991F61F09F3F79F087950895121607
:1037000013061406551FF2CF4695F1DF08C01616B2
:1037100017061806991FF1CF869571056105089463
:103720000895E894BB2766277727CB0197F908957A
:103730000E94AB1B0C941C1C0E940E1C38F00E94B3
:10374000151C20F0952311F00C94051C0C940B1CF7
:1037500011240C94921B0E946F1B70F3959FC1F370
:10376000950F50E0551F629FF001729FBB27F00D2F
:10377000B11D639FAA27F00DB11DAA1F649F662784
:10378000B00DA11D661F829F2227B00DA11D621FD3
:10379000739FB00DA11D621F839FA00D611D221F8D
:1037A000749F3327A00D611D231F849F600D211D71
:1037B000822F762F6A2F11249F5750409AF0F1F0F4
:1037C00088234AF0EE0FFF1FBB1F661F771F881F5D
:1037D00091505040A9F79E3F510580F00C94051C74
:1037E0000C94921B5F3FE4F3983ED4F38695779553
:1037F0006795B795F795E7959F5FC1F7FE2B880F03
:10380000911D9695879597F9089597F99F6780E898
:1038100070E060E008959FEF80EC089500240A9422
:103820001616170618060906089500240A9412169B
:103830001306140605060895092E0394000C11F4CE
:10384000882352F0BB0F40F4BF2B11F460FF04C07B
:103850006F5F7F4F8F4F9F4F0895DB018F939F9333
:103860000E94BF1ABF91AF91A29F800D911DA39F8F
:10387000900DB29F900D11240895991B79E004C01A
:10388000991F961708F0961B881F7A95C9F780959F
:10389000089597FB072E16F4009407D077FD09D002
:1038A0000E945D1C07FC05D03EF4909581959F4FCA
:1038B0000895709561957F4F0895AA1BBB1B51E138
:1038C00007C0AA1FBB1FA617B70710F0A61BB70B90
:1038D000881F991F5A95A9F780959095BC01CD0135
:1038E0000895EE0FFF1F0590F491E02D0994F894D0
:0238F000FFCF08
:1038F200010300010001000000FFFFFFFF000000C4
:1039020000C40524055105110682056005740500F1
:103912000000009D082405190A180A0D0A004C4FE0
:0639220041444552000083
:00000001FF
